{"abi":[{"type":"constructor","inputs":[],"stateMutability":"nonpayable"},{"type":"function","name":"BASIC_VAULT_THRESHOLD","inputs":[],"outputs":[{"name":"","type":"uint256","internalType":"uint256"}],"stateMutability":"view"},{"type":"function","name":"BURN_BPS","inputs":[],"outputs":[{"name":"","type":"uint256","internalType":"uint256"}],"stateMutability":"view"},{"type":"function","name":"CLAIM_PERIOD","inputs":[],"outputs":[{"name":"","type":"uint256","internalType":"uint256"}],"stateMutability":"view"},{"type":"function","name":"COMMIT_MAX_DELAY","inputs":[],"outputs":[{"name":"","type":"uint256","internalType":"uint256"}],"stateMutability":"view"},{"type":"function","name":"COMMIT_MIN_DELAY","inputs":[],"outputs":[{"name":"","type":"uint256","internalType":"uint256"}],"stateMutability":"view"},{"type":"function","name":"COMMIT_REVEAL_WINDOW","inputs":[],"outputs":[{"name":"","type":"uint256","internalType":"uint256"}],"stateMutability":"view"},{"type":"function","name":"DEFAULT_INACTIVITY_PERIOD","inputs":[],"outputs":[{"name":"","type":"uint256","internalType":"uint256"}],"stateMutability":"view"},{"type":"function","name":"FAMILY_VAULT_THRESHOLD","inputs":[],"outputs":[{"name":"","type":"uint256","internalType":"uint256"}],"stateMutability":"view"},{"type":"function","name":"GRACE_PERIOD","inputs":[],"outputs":[{"name":"","type":"uint256","internalType":"uint256"}],"stateMutability":"view"},{"type":"function","name":"INITIAL_SUPPLY","inputs":[],"outputs":[{"name":"","type":"uint256","internalType":"uint256"}],"stateMutability":"view"},{"type":"function","name":"LEGACY_VAULT_THRESHOLD","inputs":[],"outputs":[{"name":"","type":"uint256","internalType":"uint256"}],"stateMutability":"view"},{"type":"function","name":"MAINTAINER_REWARD_BPS","inputs":[],"outputs":[{"name":"","type":"uint256","internalType":"uint256"}],"stateMutability":"view"},{"type":"function","name":"PERIOD_180_DAYS","inputs":[],"outputs":[{"name":"","type":"uint256","internalType":"uint256"}],"stateMutability":"view"},{"type":"function","name":"PERIOD_30_DAYS","inputs":[],"outputs":[{"name":"","type":"uint256","internalType":"uint256"}],"stateMutability":"view"},{"type":"function","name":"PERIOD_365_DAYS","inputs":[],"outputs":[{"name":"","type":"uint256","internalType":"uint256"}],"stateMutability":"view"},{"type":"function","name":"PERIOD_90_DAYS","inputs":[],"outputs":[{"name":"","type":"uint256","internalType":"uint256"}],"stateMutability":"view"},{"type":"function","name":"PROTOCOL_FEE_BPS","inputs":[],"outputs":[{"name":"","type":"uint256","internalType":"uint256"}],"stateMutability":"view"},{"type":"function","name":"RECYCLE_BPS","inputs":[],"outputs":[{"name":"","type":"uint256","internalType":"uint256"}],"stateMutability":"view"},{"type":"function","name":"TREASURY_CHANGE_DELAY","inputs":[],"outputs":[{"name":"","type":"uint256","internalType":"uint256"}],"stateMutability":"view"},{"type":"function","name":"acceptOwnership","inputs":[],"outputs":[],"stateMutability":"nonpayable"},{"type":"function","name":"allowance","inputs":[{"name":"owner","type":"address","internalType":"address"},{"name":"spender","type":"address","internalType":"address"}],"outputs":[{"name":"","type":"uint256","internalType":"uint256"}],"stateMutability":"view"},{"type":"function","name":"approve","inputs":[{"name":"spender","type":"address","internalType":"address"},{"name":"value","type":"uint256","internalType":"uint256"}],"outputs":[{"name":"","type":"bool","internalType":"bool"}],"stateMutability":"nonpayable"},{"type":"function","name":"balanceOf","inputs":[{"name":"account","type":"address","internalType":"address"}],"outputs":[{"name":"","type":"uint256","internalType":"uint256"}],"stateMutability":"view"},{"type":"function","name":"burn","inputs":[{"name":"value","type":"uint256","internalType":"uint256"}],"outputs":[],"stateMutability":"nonpayable"},{"type":"function","name":"burnFrom","inputs":[{"name":"account","type":"address","internalType":"address"},{"name":"value","type":"uint256","internalType":"uint256"}],"outputs":[],"stateMutability":"nonpayable"},{"type":"function","name":"cancelSuccessorClaim","inputs":[],"outputs":[],"stateMutability":"nonpayable"},{"type":"function","name":"cancelTreasuryChange","inputs":[],"outputs":[],"stateMutability":"nonpayable"},{"type":"function","name":"claimDividends","inputs":[],"outputs":[],"stateMutability":"nonpayable"},{"type":"function","name":"commitRecycle","inputs":[{"name":"_commitHash","type":"bytes32","internalType":"bytes32"}],"outputs":[],"stateMutability":"nonpayable"},{"type":"function","name":"completeVaultTransfer","inputs":[{"name":"_node","type":"address","internalType":"address"}],"outputs":[],"stateMutability":"nonpayable"},{"type":"function","name":"confirmActivity","inputs":[],"outputs":[],"stateMutability":"nonpayable"},{"type":"function","name":"decimals","inputs":[],"outputs":[{"name":"","type":"uint8","internalType":"uint8"}],"stateMutability":"view"},{"type":"function","name":"designateSuccessor","inputs":[{"name":"_successor","type":"address","internalType":"address"}],"outputs":[],"stateMutability":"nonpayable"},{"type":"function","name":"dividendPerToken","inputs":[],"outputs":[{"name":"","type":"uint256","internalType":"uint256"}],"stateMutability":"view"},{"type":"function","name":"dividendPool","inputs":[],"outputs":[{"name":"","type":"uint256","internalType":"uint256"}],"stateMutability":"view"},{"type":"function","name":"everRegistered","inputs":[{"name":"","type":"address","internalType":"address"}],"outputs":[{"name":"","type":"bool","internalType":"bool"}],"stateMutability":"view"},{"type":"function","name":"executeRecycle","inputs":[{"name":"_abandonedNode","type":"address","internalType":"address"},{"name":"_salt","type":"bytes32","internalType":"bytes32"}],"outputs":[],"stateMutability":"nonpayable"},{"type":"function","name":"executeTreasuryChange","inputs":[],"outputs":[],"stateMutability":"nonpayable"},{"type":"function","name":"getInactivityPeriod","inputs":[{"name":"_node","type":"address","internalType":"address"}],"outputs":[{"name":"","type":"uint256","internalType":"uint256"}],"stateMutability":"view"},{"type":"function","name":"getNetworkStatistics","inputs":[],"outputs":[{"name":"totalSupply_","type":"uint256","internalType":"uint256"},{"name":"recycledToNetwork","type":"uint256","internalType":"uint256"},{"name":"removedFromCirculation","type":"uint256","internalType":"uint256"},{"name":"successfulTransfers","type":"uint256","internalType":"uint256"},{"name":"totalProtocolFees_","type":"uint256","internalType":"uint256"},{"name":"dividendPool_","type":"uint256","internalType":"uint256"}],"stateMutability":"view"},{"type":"function","name":"getNodeState","inputs":[{"name":"node","type":"address","internalType":"address"}],"outputs":[{"name":"lastActivityTimestamp","type":"uint256","internalType":"uint256"},{"name":"designatedSuccessor","type":"address","internalType":"address"},{"name":"successorClaimInitiated","type":"bool","internalType":"bool"},{"name":"claimInitiationTimestamp","type":"uint256","internalType":"uint256"},{"name":"timeUntilInactive","type":"uint256","internalType":"uint256"},{"name":"timeUntilAbandoned","type":"uint256","internalType":"uint256"},{"name":"isActive","type":"bool","internalType":"bool"},{"name":"serviceTier","type":"string","internalType":"string"},{"name":"inactivityPeriod","type":"uint256","internalType":"uint256"}],"stateMutability":"view"},{"type":"function","name":"getProtocolFeeInfo","inputs":[],"outputs":[{"name":"treasury","type":"address","internalType":"address"},{"name":"feeBps","type":"uint256","internalType":"uint256"},{"name":"totalCollected","type":"uint256","internalType":"uint256"}],"stateMutability":"view"},{"type":"function","name":"getTotalTimeout","inputs":[{"name":"_node","type":"address","internalType":"address"}],"outputs":[{"name":"","type":"uint256","internalType":"uint256"}],"stateMutability":"view"},{"type":"function","name":"getVaultStatus","inputs":[{"name":"_node","type":"address","internalType":"address"}],"outputs":[{"name":"","type":"uint8","internalType":"enum WillChain.VaultStatus"}],"stateMutability":"view"},{"type":"function","name":"initiateSuccessorClaim","inputs":[{"name":"_node","type":"address","internalType":"address"}],"outputs":[],"stateMutability":"nonpayable"},{"type":"function","name":"lastDividendPerToken","inputs":[{"name":"","type":"address","internalType":"address"}],"outputs":[{"name":"","type":"uint256","internalType":"uint256"}],"stateMutability":"view"},{"type":"function","name":"lastTransferBlock","inputs":[{"name":"","type":"address","internalType":"address"}],"outputs":[{"name":"","type":"uint256","internalType":"uint256"}],"stateMutability":"view"},{"type":"function","name":"name","inputs":[],"outputs":[{"name":"","type":"string","internalType":"string"}],"stateMutability":"view"},{"type":"function","name":"nodeStates","inputs":[{"name":"","type":"address","internalType":"address"}],"outputs":[{"name":"lastActivityTimestamp","type":"uint256","internalType":"uint256"},{"name":"designatedSuccessor","type":"address","internalType":"address"},{"name":"successorClaimInitiated","type":"bool","internalType":"bool"},{"name":"claimInitiationTimestamp","type":"uint256","internalType":"uint256"},{"name":"vaultDataHash","type":"bytes32","internalType":"bytes32"},{"name":"inactivityPeriod","type":"uint256","internalType":"uint256"}],"stateMutability":"view"},{"type":"function","name":"owner","inputs":[],"outputs":[{"name":"","type":"address","internalType":"address"}],"stateMutability":"view"},{"type":"function","name":"pendingDividends","inputs":[{"name":"_node","type":"address","internalType":"address"}],"outputs":[{"name":"","type":"uint256","internalType":"uint256"}],"stateMutability":"view"},{"type":"function","name":"pendingOwner","inputs":[],"outputs":[{"name":"","type":"address","internalType":"address"}],"stateMutability":"view"},{"type":"function","name":"pendingTreasury","inputs":[],"outputs":[{"name":"","type":"address","internalType":"address"}],"stateMutability":"view"},{"type":"function","name":"pendingTreasuryEffectiveAt","inputs":[],"outputs":[{"name":"","type":"uint256","internalType":"uint256"}],"stateMutability":"view"},{"type":"function","name":"proposeTreasuryChange","inputs":[{"name":"_newTreasury","type":"address","internalType":"address"}],"outputs":[],"stateMutability":"nonpayable"},{"type":"function","name":"protocolTreasury","inputs":[],"outputs":[{"name":"","type":"address","internalType":"address"}],"stateMutability":"view"},{"type":"function","name":"recoverDividendDust","inputs":[],"outputs":[],"stateMutability":"nonpayable"},{"type":"function","name":"recycleCommits","inputs":[{"name":"","type":"address","internalType":"address"}],"outputs":[{"name":"commitHash","type":"bytes32","internalType":"bytes32"},{"name":"commitBlock","type":"uint64","internalType":"uint64"}],"stateMutability":"view"},{"type":"function","name":"recycleInactiveNode","inputs":[{"name":"_abandonedNode","type":"address","internalType":"address"}],"outputs":[],"stateMutability":"nonpayable"},{"type":"function","name":"renounceOwnership","inputs":[],"outputs":[],"stateMutability":"pure"},{"type":"function","name":"setInactivityPeriod","inputs":[{"name":"_period","type":"uint256","internalType":"uint256"}],"outputs":[],"stateMutability":"nonpayable"},{"type":"function","name":"symbol","inputs":[],"outputs":[{"name":"","type":"string","internalType":"string"}],"stateMutability":"view"},{"type":"function","name":"totalProtocolFees","inputs":[],"outputs":[{"name":"","type":"uint256","internalType":"uint256"}],"stateMutability":"view"},{"type":"function","name":"totalRecycledToNetwork","inputs":[],"outputs":[{"name":"","type":"uint256","internalType":"uint256"}],"stateMutability":"view"},{"type":"function","name":"totalRemovedFromCirculation","inputs":[],"outputs":[{"name":"","type":"uint256","internalType":"uint256"}],"stateMutability":"view"},{"type":"function","name":"totalSuccessfulTransfers","inputs":[],"outputs":[{"name":"","type":"uint256","internalType":"uint256"}],"stateMutability":"view"},{"type":"function","name":"totalSupply","inputs":[],"outputs":[{"name":"","type":"uint256","internalType":"uint256"}],"stateMutability":"view"},{"type":"function","name":"totalUnregisteredSupply","inputs":[],"outputs":[{"name":"","type":"uint256","internalType":"uint256"}],"stateMutability":"view"},{"type":"function","name":"transfer","inputs":[{"name":"to","type":"address","internalType":"address"},{"name":"value","type":"uint256","internalType":"uint256"}],"outputs":[{"name":"","type":"bool","internalType":"bool"}],"stateMutability":"nonpayable"},{"type":"function","name":"transferFrom","inputs":[{"name":"from","type":"address","internalType":"address"},{"name":"to","type":"address","internalType":"address"},{"name":"value","type":"uint256","internalType":"uint256"}],"outputs":[{"name":"","type":"bool","internalType":"bool"}],"stateMutability":"nonpayable"},{"type":"function","name":"transferOwnership","inputs":[{"name":"newOwner","type":"address","internalType":"address"}],"outputs":[],"stateMutability":"nonpayable"},{"type":"function","name":"unclaimedDividends","inputs":[{"name":"","type":"address","internalType":"address"}],"outputs":[{"name":"","type":"uint256","internalType":"uint256"}],"stateMutability":"view"},{"type":"function","name":"updateVaultData","inputs":[{"name":"_dataHash","type":"bytes32","internalType":"bytes32"}],"outputs":[],"stateMutability":"nonpayable"},{"type":"event","name":"ActivityConfirmed","inputs":[{"name":"node","type":"address","indexed":true,"internalType":"address"},{"name":"timestamp","type":"uint256","indexed":false,"internalType":"uint256"}],"anonymous":false},{"type":"event","name":"Approval","inputs":[{"name":"owner","type":"address","indexed":true,"internalType":"address"},{"name":"spender","type":"address","indexed":true,"internalType":"address"},{"name":"value","type":"uint256","indexed":false,"internalType":"uint256"}],"anonymous":false},{"type":"event","name":"DividendDustRecovered","inputs":[{"name":"to","type":"address","indexed":true,"internalType":"address"},{"name":"amount","type":"uint256","indexed":false,"internalType":"uint256"}],"anonymous":false},{"type":"event","name":"DividendsBurnedNoEligibleHolders","inputs":[{"name":"from","type":"address","indexed":true,"internalType":"address"},{"name":"amount","type":"uint256","indexed":false,"internalType":"uint256"}],"anonymous":false},{"type":"event","name":"DividendsClaimed","inputs":[{"name":"node","type":"address","indexed":true,"internalType":"address"},{"name":"amount","type":"uint256","indexed":false,"internalType":"uint256"}],"anonymous":false},{"type":"event","name":"DividendsDistributed","inputs":[{"name":"amount","type":"uint256","indexed":false,"internalType":"uint256"},{"name":"newDividendPerToken","type":"uint256","indexed":false,"internalType":"uint256"}],"anonymous":false},{"type":"event","name":"FrozenDividendsRecovered","inputs":[{"name":"abandonedNode","type":"address","indexed":true,"internalType":"address"},{"name":"amount","type":"uint256","indexed":false,"internalType":"uint256"}],"anonymous":false},{"type":"event","name":"InactiveNodeRecycled","inputs":[{"name":"node","type":"address","indexed":true,"internalType":"address"},{"name":"removedFromCirculation","type":"uint256","indexed":false,"internalType":"uint256"},{"name":"recycledToNetwork","type":"uint256","indexed":false,"internalType":"uint256"},{"name":"maintainer","type":"address","indexed":true,"internalType":"address"},{"name":"maintainerReward","type":"uint256","indexed":false,"internalType":"uint256"}],"anonymous":false},{"type":"event","name":"InactivityPeriodChanged","inputs":[{"name":"node","type":"address","indexed":true,"internalType":"address"},{"name":"newPeriod","type":"uint256","indexed":false,"internalType":"uint256"}],"anonymous":false},{"type":"event","name":"NodeRegistered","inputs":[{"name":"node","type":"address","indexed":true,"internalType":"address"},{"name":"timestamp","type":"uint256","indexed":false,"internalType":"uint256"}],"anonymous":false},{"type":"event","name":"OwnershipTransferStarted","inputs":[{"name":"previousOwner","type":"address","indexed":true,"internalType":"address"},{"name":"newOwner","type":"address","indexed":true,"internalType":"address"}],"anonymous":false},{"type":"event","name":"OwnershipTransferred","inputs":[{"name":"previousOwner","type":"address","indexed":true,"internalType":"address"},{"name":"newOwner","type":"address","indexed":true,"internalType":"address"}],"anonymous":false},{"type":"event","name":"ProtocolFeeCollected","inputs":[{"name":"from","type":"address","indexed":true,"internalType":"address"},{"name":"amount","type":"uint256","indexed":false,"internalType":"uint256"}],"anonymous":false},{"type":"event","name":"RecycleCommitted","inputs":[{"name":"committer","type":"address","indexed":true,"internalType":"address"},{"name":"commitHash","type":"bytes32","indexed":false,"internalType":"bytes32"},{"name":"commitBlock","type":"uint256","indexed":false,"internalType":"uint256"}],"anonymous":false},{"type":"event","name":"SuccessorClaimCancelled","inputs":[{"name":"node","type":"address","indexed":true,"internalType":"address"}],"anonymous":false},{"type":"event","name":"SuccessorClaimInitiated","inputs":[{"name":"node","type":"address","indexed":true,"internalType":"address"},{"name":"successor","type":"address","indexed":true,"internalType":"address"},{"name":"timestamp","type":"uint256","indexed":false,"internalType":"uint256"}],"anonymous":false},{"type":"event","name":"SuccessorDesignated","inputs":[{"name":"node","type":"address","indexed":true,"internalType":"address"},{"name":"successor","type":"address","indexed":true,"internalType":"address"}],"anonymous":false},{"type":"event","name":"Transfer","inputs":[{"name":"from","type":"address","indexed":true,"internalType":"address"},{"name":"to","type":"address","indexed":true,"internalType":"address"},{"name":"value","type":"uint256","indexed":false,"internalType":"uint256"}],"anonymous":false},{"type":"event","name":"TreasuryChangeCancelled","inputs":[{"name":"cancelled","type":"address","indexed":true,"internalType":"address"}],"anonymous":false},{"type":"event","name":"TreasuryChangeProposed","inputs":[{"name":"proposed","type":"address","indexed":true,"internalType":"address"},{"name":"effectiveAt","type":"uint256","indexed":false,"internalType":"uint256"}],"anonymous":false},{"type":"event","name":"TreasuryUpdated","inputs":[{"name":"oldTreasury","type":"address","indexed":true,"internalType":"address"},{"name":"newTreasury","type":"address","indexed":true,"internalType":"address"}],"anonymous":false},{"type":"event","name":"UserActivityConfirmed","inputs":[{"name":"node","type":"address","indexed":true,"internalType":"address"},{"name":"timestamp","type":"uint256","indexed":false,"internalType":"uint256"}],"anonymous":false},{"type":"event","name":"VaultAccessTransferred","inputs":[{"name":"fromNode","type":"address","indexed":true,"internalType":"address"},{"name":"toNode","type":"address","indexed":true,"internalType":"address"},{"name":"amount","type":"uint256","indexed":false,"internalType":"uint256"}],"anonymous":false},{"type":"event","name":"VaultDataUpdated","inputs":[{"name":"node","type":"address","indexed":true,"internalType":"address"},{"name":"dataHash","type":"bytes32","indexed":false,"internalType":"bytes32"}],"anonymous":false},{"type":"error","name":"ERC20InsufficientAllowance","inputs":[{"name":"spender","type":"address","internalType":"address"},{"name":"allowance","type":"uint256","internalType":"uint256"},{"name":"needed","type":"uint256","internalType":"uint256"}]},{"type":"error","name":"ERC20InsufficientBalance","inputs":[{"name":"sender","type":"address","internalType":"address"},{"name":"balance","type":"uint256","internalType":"uint256"},{"name":"needed","type":"uint256","internalType":"uint256"}]},{"type":"error","name":"ERC20InvalidApprover","inputs":[{"name":"approver","type":"address","internalType":"address"}]},{"type":"error","name":"ERC20InvalidReceiver","inputs":[{"name":"receiver","type":"address","internalType":"address"}]},{"type":"error","name":"ERC20InvalidSender","inputs":[{"name":"sender","type":"address","internalType":"address"}]},{"type":"error","name":"ERC20InvalidSpender","inputs":[{"name":"spender","type":"address","internalType":"address"}]},{"type":"error","name":"OwnableInvalidOwner","inputs":[{"name":"owner","type":"address","internalType":"address"}]},{"type":"error","name":"OwnableUnauthorizedAccount","inputs":[{"name":"account","type":"address","internalType":"address"}]},{"type":"error","name":"ReentrancyGuardReentrantCall","inputs":[]}],"bytecode":{"object":"0x608034620005645760406001600160401b03828201818111848210176200055057825260098352602090682bb4b63621b430b4b760b91b8285015282519383850185811083821117620005505784526004918286526315d2531360e21b8487015281518181116200053d576003908154906001948583811c9316801562000532575b888410146200051f578190601f93848111620004cc575b50889084831160011462000469575f926200045d575b50505f1982851b1c191690851b1782555b87519283116200044a5784548481811c911680156200043f575b878210146200042c57818111620003e4575b50859083116001146200037e578293949596975f9362000372575b505082841b925f19911b1c19161782555b8060055533156200035c57600780546001600160a01b0319908116909155600680543381841681179092556001600160a01b03167f8be0079c531659141344cd1fd0a4f28419497f9722a3daafe3b4186f6b6457e05f80a33390600e541617600e55335f5260168352835f209060ff198254161790556008825242835f2055303314158091816200027e575b506200026f575b620001b760025462000568565b600255335f525f8252825f206b033b2e3c9fd0803ce80000009081815401905583518181525f7fddf252ad1be2c89b69c2b068fc378daa952ba7f163c4a11628f55a4df523b3ef853393a3816200025b575b5062000246575b506200021c3362000596565b62000230575b516132059081620005d68239f35b6200023d60155462000568565b60155562000222565b600b600a5491335f5252815f20555f62000210565b9050335f525f8252825f2054145f62000209565b600d825243835f2055620001aa565b90505f8352835f205490620002933362000596565b158062000352575b806200033c575b620002c0575b505080600a54335f52600b8452845f20555f620001a3565b600a5491335f52600b8552855f2054830392831162000329578281029281840414901517156200031657335f52600c8452845f2090670de0b6b3a7640000825493048301809311620003165750555f80620002a8565b601190634e487b7160e01b5f525260245ffd5b601182634e487b7160e01b5f525260245ffd5b50600a54335f52600b8552855f205410620002a2565b508115156200029b565b8351631e4fbdf760e01b81525f81840152602490fd5b015191505f8062000106565b90601f19831691855f52865f20925f5b818110620003ce57509884869798999a10620003b4575b50505050811b01825562000117565b01519060f8845f19921b161c191690555f808080620003a5565b8a8301518555938601939188019188016200038e565b855f52865f208280860160051c82019289871062000422575b0160051c019085905b82811062000416575050620000eb565b5f815501859062000406565b92508192620003fd565b602286634e487b7160e01b5f525260245ffd5b90607f1690620000d9565b604185634e487b7160e01b5f525260245ffd5b015190505f80620000ae565b90879350601f19831691865f528a5f20925f5b8c828210620004b557505084116200049d575b505050811b018255620000bf565b01515f1983871b60f8161c191690555f80806200048f565b8385015186558b979095019493840193016200047c565b909150845f52885f208480850160051c8201928b861062000515575b918991869594930160051c01915b8281106200050657505062000098565b5f8155859450899101620004f6565b92508192620004e8565b602287634e487b7160e01b5f525260245ffd5b92607f169262000081565b604184634e487b7160e01b5f525260245ffd5b634e487b7160e01b5f52604160045260245ffd5b5f80fd5b906b033b2e3c9fd0803ce800000082018092116200058257565b634e487b7160e01b5f52601160045260245ffd5b6001600160a01b03168015159081620005c9575b81620005b4575090565b90505f52601660205260ff60405f2054161590565b308114159150620005aa56fe608060409080825260049081361015610016575f80fd5b5f3560e01c9081630178d4ca1461221c575080630490c71c146121e557806306fdde03146120e5578063076aaa1314611ff0578063095ea7b314611f475780630d55def514611f2a5780631690e2e314611f0f578063180d97c114611ec557806318160ddd14611ea757806321241dfe14610719578063229bb82314611c30578063232f4b6414611c0b57806323b872dd14611bcf57806325f3cbeb14611b5b57806328e1ef9614611b385780632a8a2f1d146118195780632ed6b75d146117f15780632ff2e9dc146117cb57806330d172d5146117ad578063313ce567146117925780633f44910b146115cf5780633ffa71c1146115b157806342966c6814611594578063503a20c6146115705780635be0a5bb146115535780636654cde014611535578063668038e0146113f6578063695639b7146113c05780636a2e0af3146113a357806370a082311461136d578063715018a61461131a57806377ec0feb146112fc57806378bfe371146112b357806379ba50971461122c57806379cc6790146111fb578063803db96d146111d3578063839b32f61461118d57806386e12366146111685780638712523e146111315780638da5cb5b146111095780639315080914610f5757806395d89b4114610e3d5780639c44f8ab14610da35780639e5a590614610ce6578063a37a9fc0146107ed578063a617451214610c9c578063a9059cbb14610c6c578063aad4c7c814610c51578063af434a6d14610b5b578063b3165ed214610af1578063be37822814610ad5578063c1a287e214610719578063c792645814610aa9578063c8e28aec14610a8b578063c8fc11e1146109e7578063c9405feb146107f2578063cb372e58146107ed578063d102c7501461062e578063d10e40dc146107d1578063d3d8d932146107ad578063dd62ed3e14610764578063e30c39781461073c578063e5bcdca41461071e578063e628c3ea14610719578063e63e463514610633578063f0976a9a1461062e578063f2fde38b146105c2578063f32f020b146105a4578063f3ff023f14610568578063f526e39a1461054a578063fb1beaf114610513578063fc4d3d17146104765763fe1140a314610343575f80fd5b346104725760203660031901126104725761035c612236565b6103646125d1565b6001600160a01b031691821561042f573083146103e157826001600160601b0360a01b60135416176013556202a3004201918242116103ce5750816020917f2fdb8aa18e3708b0dfed4acb0de7452e85e7f833b1b055880cef38e8bee690b59360145551908152a2005b601190634e487b7160e01b5f525260245ffd5b906020608492519162461bcd60e51b8352820152602260248201527f54726561737572792063616e6e6f7420626520636f6e74726163742069747365604482015261363360f11b6064820152fd5b906020606492519162461bcd60e51b8352820152601f60248201527f54726561737572792063616e6e6f74206265207a65726f2061646472657373006044820152fd5b5f80fd5b5034610472575f36600319011261047257335f52600860205260ff6001835f20015460a01c16156104d1576104aa336129b3565b337fa77f2d6967892a8e014fd0bb96ecfcd3e676d02796ccc9e56185ab2588ab78bf5f80a2005b6020606492519162461bcd60e51b8352820152601960248201527f4e6f2061637469766520636c61696d20746f2063616e63656c000000000000006044820152fd5b8234610472576020366003190112610472576020906001600160a01b03610538612236565b165f52600b8252805f20549051908152f35b8234610472575f36600319011261047257602090600f549051908152f35b8234610472576020366003190112610472576020906001600160a01b0361058d612236565b165f526016825260ff815f20541690519015158152f35b8234610472575f36600319011261047257602090516301e133808152f35b34610472576020366003190112610472576105db612236565b6105e36125d1565b600780546001600160a01b0319166001600160a01b039283169081179091556006549091167f38d16b8cac22d99fc7c124b9cd0de2d3fa1faef420bfe791d8c362d765e227005f80a3005b6122d9565b5090346104725760203660031901126104725781359081156106e357805167ffffffffffffffff818301818111838210176106d0577f6b2f2e29fa5ede2a8e4f5821c049a55927fee004aef6fef761606c4ad43c25d29495508352848252600160208301928243168452335f526017602052845f20905181550191511667ffffffffffffffff1982541617905580519283524360208401523392a2005b604186634e487b7160e01b5f525260245ffd5b5162461bcd60e51b8152602081840152601160248201527008adae0e8f240c6dedadad2e840d0c2e6d607b1b6044820152606490fd5b6122a0565b8234610472575f366003190112610472576020906015549051908152f35b8234610472575f3660031901126104725760075490516001600160a01b039091168152602090f35b8234610472578060031936011261047257602090610780612236565b61078861224c565b9060018060a01b038091165f5260018452825f2091165f528252805f20549051908152f35b8234610472575f366003190112610472576020905169152d02c7e14af68000008152f35b8234610472575f36600319011261047257602090516101008152f35b6122bd565b50903461047257602090816003193601126104725761080f612236565b9060018060a01b039161083583821693845f52600886526001845f200154163314612462565b61083d6125fd565b825f5260088452610850825f2091612811565b815461085c8282612369565b4211156109ad579061086d91612369565b62278d0081019081811161099a57624f1a000180911161098757421161092c576001810180549560ff8760a01c166108e957507f83e33b05d6b489766e6a63397dd56cf8b49010a2270e805175a38fa1bba8d9e4939495600160a01b9060ff60a01b191617905560024291015551924284523393a36001600555005b835162461bcd60e51b8152908101869052601760248201527f436c61696d20616c726561647920696e697469617465640000000000000000006044820152606490fd5b815162461bcd60e51b8152808601859052602f60248201527f4e6f646520616c7265616479206162616e646f6e65643a20757365207265637960448201526e636c65496e6163746976654e6f646560881b6064820152608490fd5b601186634e487b7160e01b5f525260245ffd5b601187634e487b7160e01b5f525260245ffd5b835162461bcd60e51b815280880187905260146024820152734e6f6465206973207374696c6c2061637469766560601b6044820152606490fd5b509034610472576020366003190112610472578135918215610a495750335f526008602052816003825f200155610a1d336129b3565b519081527fd6b80339dd791e8658830ae315d2672f559d749153ee8ba1064f73bb70c3b7d660203392a2005b6020606492519162461bcd60e51b8352820152601860248201527f4461746120686173682063616e6e6f74206265207a65726f00000000000000006044820152fd5b8234610472575f366003190112610472576020906010549051908152f35b823461047257602036600319011261047257602090610ace610ac9612236565b612550565b9051908152f35b8234610472575f36600319011261047257602090516101f48152f35b34610472575f36600319011261047257610b096125d1565b6013546001600160a01b03811690610b228215156124f1565b6001600160601b0360a01b166013555f6014557f126edc9f10a40adff641028274713504fd84689745c30ee6ce1a196cc5259bc15f80a2005b5090346104725760203660031901126104725781359162278d0083148015610c45575b8015610c39575b8015610c2c575b15610bd5578290335f526008602052825f200155610ba9336129b3565b519081527f1508763dfb43d7299a699e4b9a59453b051a82c1dc848f73c96b6b1b7bc96ba760203392a2005b6020608492519162461bcd60e51b8352820152602c60248201527f496e76616c696420706572696f643a207573652033302c2039302c203138302c60448201526b206f7220333635206461797360a01b6064820152fd5b506301e133808314610b8c565b5062ed4e008314610b85565b506276a7008314610b7e565b8234610472575f366003190112610472576020905160028152f35b8234610472578060031936011261047257602090610c95610c8b612236565b6024359033612620565b5160018152f35b8234610472576020366003190112610472576001600160a01b03610cbe612236565b165f526017602052805f2067ffffffffffffffff600182549201541682519182526020820152f35b5034610472575f36600319011261047257610cff6125d1565b6013546001600160a01b0380821693909290610d1c8515156124f1565b6014544210610d6e575050600e54906001600160601b0360a01b908482841617600e55166013555f601455167f4ab5be82436d353e61ca18726e984e561f5c1cc7c6d38b29d2553c790434705a5f80a3005b906020606492519162461bcd60e51b8352820152600f60248201526e54696d656c6f636b2061637469766560881b6044820152fd5b503461047257602036600319011261047257610dbd612236565b91610dc66125fd565b610dcf83612fcf565b610de357610ddc83612c06565b6001600555005b906020608492519162461bcd60e51b8352820152602e60248201527f55736520636f6d6d69742d72657665616c20666f7220726563656e746c79206160448201526d62616e646f6e6564206e6f64657360901b6064820152fd5b509034610472575f366003190112610472578051905f9083549160018360011c9060018516968715610f4d575b6020958684108914610f3a57868899858a98999a5291825f14610f13575050600114610eb7575b505050610eb39291610ea4910385612326565b51928284938452830190612262565b0390f35b5f90815286935091907f8a35acfbc15ff81a39ae7d344fd709f28e8600b4aa8c65c6b64bfe7fe36bd19b5b828410610efb5750505082010181610ea4610eb3610e91565b8054848a018601528895508794909301928101610ee2565b60ff19168782015293151560051b86019093019350849250610ea49150610eb39050610e91565b602282634e487b7160e01b5f525260245ffd5b91607f1691610e6a565b5034610472578160031936011261047257610f70612236565b90610f796125fd565b335f5260209060178252835f209067ffffffffffffffff918260018201541680156110d357610fa89043612348565b6002811061109d576101001061106957855191848301906001600160601b03198760601b16825260243560348501523360601b60548501526048845260808401948486109086111761105657508387528251902090540361101e57610ddc845f6001886017883385525282208281550155612c06565b60c474125b9d985b1a590818dbdb5b5a5d081c995d99585b605a1b9160649462461bcd60e51b85526084820152601560a48201520152fd5b604190634e487b7160e01b5f525260245ffd5b855162461bcd60e51b8152808301859052600e60248201526d10dbdb5b5a5d08195e1c1a5c995960921b6044820152606490fd5b865162461bcd60e51b8152808401869052601060248201526f52657665616c20746f6f206561726c7960801b6044820152606490fd5b865162461bcd60e51b8152808401869052601060248201526f139bc81858dd1a5d994818dbdb5b5a5d60821b6044820152606490fd5b8234610472575f3660031901126104725760065490516001600160a01b039091168152602090f35b8234610472576020366003190112610472576020906001600160a01b03611156612236565b165f52600d8252805f20549051908152f35b823461047257602036600319011261047257602090610ace611188612236565b612811565b8234610472575f366003190112610472576111a7336129b3565b514281527f806ecfe2fa6a61f4f622a2773e4bf95965e3c4559a291c82575c4d784394250e60203392a2005b8234610472575f36600319011261047257600e5490516001600160a01b039091168152602090f35b8234610472573660031901126104725761122a611216612236565b60243590611225823383612838565b612aa8565b005b509034610472575f36600319011261047257600754916001600160a01b0391338385160361129c5750506001600160601b0360a01b8092166007556006549133908316176006553391167f8be0079c531659141344cd1fd0a4f28419497f9722a3daafe3b4186f6b6457e05f80a3005b60249250519063118cdaa760e01b82523390820152fd5b8234610472575f3660031901126104725760c090600254906011549060105460125490600f549260095494815196875260208701528501526060840152608083015260a0820152f35b8234610472575f36600319011261047257602090600a549051908152f35b5034610472575f366003190112610472576020606492519162461bcd60e51b8352820152601f60248201527f4f776e6572736869702072656e6f756e63656d656e742064697361626c6564006044820152fd5b8234610472576020366003190112610472576020906001600160a01b03611392612236565b165f525f8252805f20549051908152f35b8234610472575f366003190112610472576020905162ed4e008152f35b8234610472575f3660031901126104725760609060018060a01b03600e541690600f549080519283526101f46020840152820152f35b509034610472575f366003190112610472576114106125fd565b61141933612bca565b6114e257335f52600d602052611433815f205443116124ae565b61143c33612905565b335f52600c602052805f20549182156114a85750335f52600c6020525f8181205561146982600954612348565b600955611477823330612620565b519081527f16b8533c95f66ab8c192c98ddcf5031bcb3ee6f4022988bdadd57d3422da307360203392a26001600555005b6020606492519162461bcd60e51b835282015260156024820152744e6f206469766964656e647320746f20636c61696d60581b6044820152fd5b906020608492519162461bcd60e51b8352820152602760248201527f4e6f7420726567697374657265643a2073657420757020796f7572207661756c6044820152661d08199a5c9cdd60ca1b6064820152fd5b8234610472575f366003190112610472576020906012549051908152f35b8234610472575f36600319011261047257602090516202a3008152f35b8234610472575f366003190112610472576020905169021e19e0c9bab24000008152f35b50346104725760203660031901126104725761122a903533612aa8565b8234610472575f366003190112610472576020906011549051908152f35b50903461047257602080600319360112610472576001600160a01b0392836115f5612236565b1693841561175057338514611703573085146116b257845f526008835233906001855f20015416146116715750906008600192335f52525f2001816001600160601b0360a01b82541617905561164a336129b3565b337f3a56e5e068a89242ce3c578f87433dafa4c23fd3caea4c91b359549c9ddf2f625f80a3005b915162461bcd60e51b815291820152601860248201527f43697263756c617220737563636573736f7220636861696e00000000000000006044820152606490fd5b50915162461bcd60e51b815291820152602660248201527f43616e6e6f742064657369676e61746520636f6e74726163742061732073756360448201526531b2b9b9b7b960d11b6064820152608490fd5b50915162461bcd60e51b815291820152602260248201527f43616e6e6f742064657369676e6174652073656c66206173207375636365737360448201526137b960f11b6064820152608490fd5b50915162461bcd60e51b815291820152601960248201527f496e76616c696420737563636573736f722061646472657373000000000000006044820152606490fd5b8234610472575f366003190112610472576020905160128152f35b8234610472575f366003190112610472576020906009549051908152f35b8234610472575f36600319011261047257602090516b033b2e3c9fd0803ce80000008152f35b8234610472575f3660031901126104725760135490516001600160a01b039091168152602090f35b50346104725760208060031936011261047257611834612236565b9260018060a01b039261185a84861694855f52600885526001845f200154163314612462565b6118626125fd565b335f52600d8352611877825f205443116124ae565b835f5260088352815f2060ff600182015460a01c1615611b00576002015462278d00810190818111611aed5781421115611ab257624f1a0001809111611a9f574211611a4957835f525f8352815f2054948515611a0f578561192991335f5260168652845f20805460ff8116156119cd575b505060088652845f208054156119c4575b5061190481612905565b61190d33612905565b865f52600c8652845f20805490816119a7575b50503390612620565b835f5260088352611953825f2060045f918281558260018201558260028201558260038201550155565b601683525f829020805460ff19169055601254905f1982146103ce57506001016012555192835233927fb7b0e9cf7799c5b8b3855a4a2e51edd68b0455db44cda89ad60f25f7c01090c29190a36001600555005b5f9055335f526119bb865f20918254612369565b90555f80611920565b4290555f6118fa565b60ff191660011790555f80875285902054806119fa575b50600a54335f52600b8752855f20555f806118e9565b611a0690601554612348565b6015555f6119e4565b5082606492519162461bcd60e51b835282015260156024820152742737903a37b5b2b739903a37903a3930b739b332b960591b6044820152fd5b82608492519162461bcd60e51b8352820152602c60248201527f4e6f646520636c61696d2065787069726564202d207573652072656379636c6560448201526b496e6163746976654e6f646560a01b6064820152fd5b601182634e487b7160e01b5f525260245ffd5b835162461bcd60e51b8152808401869052601560248201527415995d1bc81c195c9a5bd9081b9bdd08195b991959605a1b6044820152606490fd5b601183634e487b7160e01b5f525260245ffd5b5082606492519162461bcd60e51b8352820152601360248201527210db185a5b481b9bdd081a5b9a5d1a585d1959606a1b6044820152fd5b8234610472575f3660031901126104725760209051683635c9adc5dea000008152f35b5090346104725760203660031901126104725760c0916001600160a01b039081611b83612236565b165f526008602052825f209081549360ff600184015460028501549360038601549501549583519788528116602088015260a01c161515908501526060840152608083015260a0820152f35b823461047257606036600319011261047257602090610c95611bef612236565b611bf761224c565b60443591611c06833383612838565b612620565b823461047257602036600319011261047257602090610ace611c2b612236565b61243c565b509034610472576020908160031936011261047257611c4d612236565b9060018060a01b0392838316805f5260088252825f2093845491600186015495600260ff8860a01c16910154611c8284612811565b96611c8c85612376565b9460058610159586611e875760018114968715611e9a575b611e8757611de05750611d379798999a505f925f945b5f9081528089528290205469152d02c7e14af68000008110611d4257508151611ce2816122f6565b600c81526b131959d858de4815985d5b1d60a21b89820152975b82519c8d9c8d996101209a5216908c01521515908a01526060890152608088015260a0870152151560c08601528060e0860152840190612262565b906101008301520390f35b69021e19e0c9bab24000008110611d7d57508151611d5f816122f6565b600c81526b11985b5a5b1e4815985d5b1d60a21b8982015297611cfc565b683635c9adc5dea0000011611db4578151611d97816122f6565b600b81526a10985cda58c815985d5b1d60aa1b8982015297611cfc565b8151611dbf816122f6565b600f81526e4e6f205661756c742041636365737360881b8982015297611cfc565b92611deb8988612369565b938115611e67575062278d008301808411611e5457624f1a008401809111611e5457611d37999a9b9c50935b8042105f14611e4d57611e2b904290612348565b938042105f14611e4657611e40904290612348565b94611cba565b505f611e40565b505f611e2b565b60118d634e487b7160e01b5f525260245ffd5b611d37999a9b9c50611e7b611e819161243c565b88612369565b93611e17565b60218d634e487b7160e01b5f525260245ffd5b506002811496505f611ca4565b8234610472575f366003190112610472576020906002549051908152f35b50903461047257602036600319011261047257611ee8611ee3612236565b612376565b9051906005811015611efc57602092508152f35b602183634e487b7160e01b5f525260245ffd5b8234610472575f366003190112610472576020905160648152f35b8234610472575f3660031901126104725760209051620151808152f35b509034610472578060031936011261047257611f61612236565b602435903315611fda576001600160a01b0316908115611fc45760209350335f5260018452825f20825f52845280835f205582519081527f8c5be1e5ebec7d5bd14f71427d1e84f3dd0314c0f7b2291e5b200ac8c7c3b925843392a35160018152f35b8251634a1406b160e11b81525f81860152602490fd5b825163e602df0560e01b81525f81860152602490fd5b5034610472575f366003190112610472576120096125d1565b6120116125fd565b305f525f602052815f205460095491828211156120ae57509061203391612348565b906103e8600254048083116120a5575b50600e547fd7572957bd59b0af06d92d2cbc339be736eaf3cd469e86f9c17a7498ae509ef7916020916001600160a01b0391908216801561209957905b61208b868330612620565b519485521692a26001600555005b50816006541690612080565b91506020612043565b606490602085519162461bcd60e51b835282015260116024820152704e6f206475737420617661696c61626c6560781b6044820152fd5b509034610472575f366003190112610472578051905f906003549160018360011c90600185169485156121db575b60209586841081146121c8578388528794939291879082156121a657505060011461214b575b5050610eb39291610ea4910385612326565b9085925060035f527fc2575a0e9e593c00f959f8c92f12db2869c3395a3b0502d05e2516446f71f85b915f925b82841061218e5750505082010181610ea4612139565b8054848a018601528895508794909301928101612178565b60ff19168682015292151560051b85019092019250839150610ea49050612139565b602289634e487b7160e01b5f525260245ffd5b91607f1691612113565b8234610472576020366003190112610472576020906001600160a01b0361220a612236565b165f52600c8252805f20549051908152f35b34610472575f366003190112610472576020906014548152f35b600435906001600160a01b038216820361047257565b602435906001600160a01b038216820361047257565b91908251928382525f5b84811061228c575050825f602080949584010152601f8019910116010190565b60208183018101518483018201520161226c565b34610472575f36600319011261047257602060405162278d008152f35b34610472575f36600319011261047257602060405161125c8152f35b34610472575f3660031901126104725760206040516276a7008152f35b6040810190811067ffffffffffffffff82111761231257604052565b634e487b7160e01b5f52604160045260245ffd5b90601f8019910116810190811067ffffffffffffffff82111761231257604052565b9190820391821161235557565b634e487b7160e01b5f52601160045260245ffd5b9190820180921161235557565b6001600160a01b0381165f908152600860205260409020805490918115612435576123a090612811565b9060ff600184015460a01c16612401576123ba9250612369565b62278d00810180821161235557624f1a00820191828211612355574211156123fa574211156123f4574211156123ef57600490565b600390565b50600290565b5050600190565b50506002015462278d0081019081811161235557624f1a000190818111612355574211156123f4574211156123ef57600490565b5050505f90565b61244590612811565b62278d0081019081811161235557624f1a00018091116123555790565b1561246957565b60405162461bcd60e51b815260206004820152601860248201527f4e6f742064657369676e6174656420737563636573736f7200000000000000006044820152606490fd5b156124b557565b60405162461bcd60e51b8152602060048201526014602482015273233630b9b43637b0b710383932bb32b73a34b7b760611b6044820152606490fd5b156124f857565b60405162461bcd60e51b815260206004820152601a60248201527f4e6f2070656e64696e67207472656173757279206368616e67650000000000006044820152606490fd5b8181029291811591840414171561235557565b61255981612bca565b6125cc576001600160a01b03165f818152602081905260409020549081156125bd57670de0b6b3a76400006125a76125ba936125a1600a54600b60205260405f205490612348565b9061253d565b04905f52600c60205260405f2054612369565b90565b5050600c60205260405f205490565b505f90565b6006546001600160a01b031633036125e557565b60405163118cdaa760e01b8152336004820152602490fd5b60026005541461260e576002600555565b604051633ee5aeb560e01b8152600490fd5b6001600160a01b038181169081156127f95783169081156127e1573081141591826127d3575b82308214158094816127c5575b6127b0575b61279d575b825f526020915f8352604094855f205489811061276e579185939181857fddf252ad1be2c89b69c2b068fc378daa952ba7f163c4a11628f55a4df523b3ef888e806126ef9f9e9c996126e69e9c9a5f525f8452038b5f2055845f528a5f208181540190558a51908152a38061275c575b612748575b508061273f575b61271b575b505050612bca565b61270757612bca565b6126f65750565b61270290601554612369565b601555565b61271383601554612348565b601555612bca565b6008915f52525f2054612731575b5f80806126de565b61273a816129b3565b612729565b508133146126d9565b600a54905f52600b8352845f20555f6126d2565b50805f525f835289855f2054146126cd565b865163391434e360e21b81526001600160a01b03891660048201526024810191909152604481018a9052606490fd5b815f52600d6020524360405f205561265d565b50825f52600d602052834360405f2055612658565b6127ce88612905565b612653565b6127dc84612905565b612646565b60405163ec442f0560e01b81525f6004820152602490fd5b604051634b637e8f60e11b81525f6004820152602490fd5b6001600160a01b03165f90815260086020526040902060040154806125ba57506276a70090565b919060018060a01b0380931692835f526001602052604093845f2091831691825f52602052845f2054925f198410612873575b505050505050565b8484106128d5575080156128be5781156128a7575f526001602052835f20905f5260205203905f20555f808080808061286b565b8451634a1406b160e11b81525f6004820152602490fd5b845163e602df0560e01b81525f6004820152602490fd5b8551637dc7a0d960e11b81526001600160a01b039190911660048201526024810184905260448101859052606490fd5b6001600160a01b0381165f81815260208190526040902054909161292890612bca565b15806129aa575b80612993575b61294d575b50600a54905f52600b60205260405f2055565b612973670de0b6b3a7640000916125a1600a54855f52600b60205260405f205490612348565b04815f52600c60205261298b60405f20918254612369565b90555f61293a565b50600a54825f52600b60205260405f205410612935565b5080151561292f565b60018060a01b0316805f527f15c118892bba9735c15cf92518e8921adce5f6b48b3abc56d18a40318a4d5729602060168152604060ff815f20541615612a37575b835f5260088252805f20428155600181019081549060ff8260a01c16612a1f575b50505051428152a2565b5f9260029260ff60a01b1916905501555f8080612a15565b5f8252805f205480612a93575b50835f5260168252805f20600160ff19825416179055600a54600b8352815f2055837ff773bca07d020a1bc1fdd45ea3db573da547dd27180143afaf075c158a847594838351428152a26129f4565b612a9f90601554612348565b6015555f612a44565b6001600160a01b03811692919083156127f95730841415938480612bbc575b612ba9575b805f525f60205260405f205494838610612b7a5783612b39949596835f525f6020520360405f205584600254036002555f827fddf252ad1be2c89b69c2b068fc378daa952ba7f163c4a11628f55a4df523b3ef6020604051898152a380612b71575b612b4c575b50612bca565b612b405750565b61270290601554612348565b5f52600860205260405f2054612b63575b5f612b33565b612b6c816129b3565b612b5d565b50803314612b2e565b60405163391434e360e21b81526001600160a01b03841660048201526024810187905260448101859052606490fd5b805f52600d6020524360405f2055612acc565b612bc583612905565b612ac7565b6001600160a01b03168015159081612bfb575b81612be6575090565b90505f52601660205260ff60405f2054161590565b308114159150612bdd565b906001600160a01b03808316308114612f8a578015612f4557805f52602091600d8352604090612c3a825f205443116124ae565b612c4386612376565b936005851015612f31576004809503612ef657835f525f8152825f205415612ebd57612c6e87612905565b835f52600c8152825f208054908115159081612e7c575b50855f5260088352612cb0855f2060045f918281558260018201558260028201558260038201550155565b612e6b575b50835f525f8152825f2054966064880295881596898104606414881715611a9f57612710809104976101f4808c02908c820414821715612e58578290049261125c91828d02928d84041417156103ce575099612d2183612d21612d26948c9d9e9c9b9c049c8d94612348565b612348565b93612d32873385612620565b600e54168015612e425791877f9f01c68c1df72199426e5dc03e009238218bf665f0fd62dc1a25b82c882d581b8584612d708996612d959887612620565b612d7c81600f54612369565b600f558951908152a25b612d908982612aa8565b61308c565b612da186601054612369565b601055612db082601154612369565b601155845f5260088152612ddd835f2060045f918281558260018201558260028201558260038201550155565b5f8152825f205460168252835f2060ff19815416905580612e2d575b5082519586528501528301527f94acc74003f15a699f52da828e59a8bde2c13cce80c2596199af88c2281eabfc60603393a3565b612e3990601554612369565b6015555f612df9565b50612e528491612d959399612369565b97612d86565b601184634e487b7160e01b5f525260245ffd5b612e76908830612620565b5f612cb5565b5f9055612e8b82600954612348565b600955857f2312fa1d12677f4740f247433c41d0f56ee42066d2fc6f52558920720ea60dc8848751858152a25f612c85565b8460649184519162461bcd60e51b835282015260146024820152734e6f20746f6b656e7320746f2072656379636c6560601b6044820152fd5b8460649184519162461bcd60e51b83528201526016602482015275139bd919481b9bdd081e595d081858985b991bdb995960521b6044820152fd5b634e487b7160e01b5f52602160045260245ffd5b60405162461bcd60e51b815260206004820152601b60248201527f43616e6e6f742072656379636c65207a65726f206164647265737300000000006044820152606490fd5b60405162461bcd60e51b815260206004820152601e60248201527f43616e6e6f742072656379636c6520636f6e747261637420697473656c6600006044820152606490fd5b6001600160a01b0381165f9081526008602052604090208054801561243557612ff783612376565b926005841015612f3157600480940361308457600183015460a01c60ff16156130505750506002015462278d00810190818111611aed57624f1a0001809111611a9f57905b6201518082018092116103ce575042111590565b613064925061305e90612811565b90612369565b62278d00810190818111611aed57624f1a0001809111611a9f579061303c565b505050505f90565b61309581612bca565b156131c8576001600160a01b0381165f90815260208190526040902054905b613101600254926130fb6130f26130e060018060a01b03861696875f525f60205260405f205490612348565b305f525f60205260405f205490612348565b91601554612348565b90612348565b918215613180575082613115913090612620565b670de0b6b3a764000091828102928184041481151715612355576131606040927fac4c4b96e3856cb20170077826b7701a887bdaf8d743f369b438133249a1f82f9404600a54612369565b80600a5561317082600954612369565b60095582519182526020820152a1565b927f8f04e1e2132bdaea9e5557ab97ada140d3cbe4d52fbb5bda81b15f0075402b3892506131b081602093612aa8565b6131bc81601054612369565b601055604051908152a2565b5f906130b456fea26469706673582212200d1d7a76ee327a2f171e5bf61af6fcad545088ed1f5a1c5e9ee0d5283a0f3bb864736f6c63430008180033","linkReferences":{}},"methodIdentifiers":{"BASIC_VAULT_THRESHOLD()":"28e1ef96","BURN_BPS()":"a37a9fc0","CLAIM_PERIOD()":"21241dfe","COMMIT_MAX_DELAY()":"d10e40dc","COMMIT_MIN_DELAY()":"aad4c7c8","COMMIT_REVEAL_WINDOW()":"0d55def5","DEFAULT_INACTIVITY_PERIOD()":"d102c750","FAMILY_VAULT_THRESHOLD()":"503a20c6","GRACE_PERIOD()":"c1a287e2","INITIAL_SUPPLY()":"2ff2e9dc","LEGACY_VAULT_THRESHOLD()":"d3d8d932","MAINTAINER_REWARD_BPS()":"1690e2e3","PERIOD_180_DAYS()":"6a2e0af3","PERIOD_30_DAYS()":"e628c3ea","PERIOD_365_DAYS()":"f32f020b","PERIOD_90_DAYS()":"f0976a9a","PROTOCOL_FEE_BPS()":"be378228","RECYCLE_BPS()":"cb372e58","TREASURY_CHANGE_DELAY()":"5be0a5bb","acceptOwnership()":"79ba5097","allowance(address,address)":"dd62ed3e","approve(address,uint256)":"095ea7b3","balanceOf(address)":"70a08231","burn(uint256)":"42966c68","burnFrom(address,uint256)":"79cc6790","cancelSuccessorClaim()":"fc4d3d17","cancelTreasuryChange()":"b3165ed2","claimDividends()":"668038e0","commitRecycle(bytes32)":"e63e4635","completeVaultTransfer(address)":"2a8a2f1d","confirmActivity()":"839b32f6","decimals()":"313ce567","designateSuccessor(address)":"3f44910b","dividendPerToken()":"77ec0feb","dividendPool()":"30d172d5","everRegistered(address)":"f3ff023f","executeRecycle(address,bytes32)":"93150809","executeTreasuryChange()":"9e5a5906","getInactivityPeriod(address)":"86e12366","getNetworkStatistics()":"78bfe371","getNodeState(address)":"229bb823","getProtocolFeeInfo()":"695639b7","getTotalTimeout(address)":"232f4b64","getVaultStatus(address)":"180d97c1","initiateSuccessorClaim(address)":"c9405feb","lastDividendPerToken(address)":"fb1beaf1","lastTransferBlock(address)":"8712523e","name()":"06fdde03","nodeStates(address)":"25f3cbeb","owner()":"8da5cb5b","pendingDividends(address)":"c7926458","pendingOwner()":"e30c3978","pendingTreasury()":"2ed6b75d","pendingTreasuryEffectiveAt()":"0178d4ca","proposeTreasuryChange(address)":"fe1140a3","protocolTreasury()":"803db96d","recoverDividendDust()":"076aaa13","recycleCommits(address)":"a6174512","recycleInactiveNode(address)":"9c44f8ab","renounceOwnership()":"715018a6","setInactivityPeriod(uint256)":"af434a6d","symbol()":"95d89b41","totalProtocolFees()":"f526e39a","totalRecycledToNetwork()":"3ffa71c1","totalRemovedFromCirculation()":"c8e28aec","totalSuccessfulTransfers()":"6654cde0","totalSupply()":"18160ddd","totalUnregisteredSupply()":"e5bcdca4","transfer(address,uint256)":"a9059cbb","transferFrom(address,address,uint256)":"23b872dd","transferOwnership(address)":"f2fde38b","unclaimedDividends(address)":"0490c71c","updateVaultData(bytes32)":"c8fc11e1"},"id":0}