{"abi":[{"type":"constructor","inputs":[],"stateMutability":"nonpayable"},{"type":"function","name":"BASIC_VAULT_THRESHOLD","inputs":[],"outputs":[{"name":"","type":"uint256","internalType":"uint256"}],"stateMutability":"view"},{"type":"function","name":"BURN_BPS","inputs":[],"outputs":[{"name":"","type":"uint256","internalType":"uint256"}],"stateMutability":"view"},{"type":"function","name":"CLAIM_PERIOD","inputs":[],"outputs":[{"name":"","type":"uint256","internalType":"uint256"}],"stateMutability":"view"},{"type":"function","name":"COMMIT_MAX_DELAY","inputs":[],"outputs":[{"name":"","type":"uint256","internalType":"uint256"}],"stateMutability":"view"},{"type":"function","name":"COMMIT_MIN_DELAY","inputs":[],"outputs":[{"name":"","type":"uint256","internalType":"uint256"}],"stateMutability":"view"},{"type":"function","name":"COMMIT_REVEAL_WINDOW","inputs":[],"outputs":[{"name":"","type":"uint256","internalType":"uint256"}],"stateMutability":"view"},{"type":"function","name":"DEFAULT_INACTIVITY_PERIOD","inputs":[],"outputs":[{"name":"","type":"uint256","internalType":"uint256"}],"stateMutability":"view"},{"type":"function","name":"FAMILY_VAULT_THRESHOLD","inputs":[],"outputs":[{"name":"","type":"uint256","internalType":"uint256"}],"stateMutability":"view"},{"type":"function","name":"GRACE_PERIOD","inputs":[],"outputs":[{"name":"","type":"uint256","internalType":"uint256"}],"stateMutability":"view"},{"type":"function","name":"INITIAL_SUPPLY","inputs":[],"outputs":[{"name":"","type":"uint256","internalType":"uint256"}],"stateMutability":"view"},{"type":"function","name":"LEGACY_VAULT_THRESHOLD","inputs":[],"outputs":[{"name":"","type":"uint256","internalType":"uint256"}],"stateMutability":"view"},{"type":"function","name":"MAINTAINER_REWARD_BPS","inputs":[],"outputs":[{"name":"","type":"uint256","internalType":"uint256"}],"stateMutability":"view"},{"type":"function","name":"PERIOD_180_DAYS","inputs":[],"outputs":[{"name":"","type":"uint256","internalType":"uint256"}],"stateMutability":"view"},{"type":"function","name":"PERIOD_30_DAYS","inputs":[],"outputs":[{"name":"","type":"uint256","internalType":"uint256"}],"stateMutability":"view"},{"type":"function","name":"PERIOD_365_DAYS","inputs":[],"outputs":[{"name":"","type":"uint256","internalType":"uint256"}],"stateMutability":"view"},{"type":"function","name":"PERIOD_90_DAYS","inputs":[],"outputs":[{"name":"","type":"uint256","internalType":"uint256"}],"stateMutability":"view"},{"type":"function","name":"PROTOCOL_FEE_BPS","inputs":[],"outputs":[{"name":"","type":"uint256","internalType":"uint256"}],"stateMutability":"view"},{"type":"function","name":"RECYCLE_BPS","inputs":[],"outputs":[{"name":"","type":"uint256","internalType":"uint256"}],"stateMutability":"view"},{"type":"function","name":"TREASURY_CHANGE_DELAY","inputs":[],"outputs":[{"name":"","type":"uint256","internalType":"uint256"}],"stateMutability":"view"},{"type":"function","name":"acceptOwnership","inputs":[],"outputs":[],"stateMutability":"nonpayable"},{"type":"function","name":"allowance","inputs":[{"name":"owner","type":"address","internalType":"address"},{"name":"spender","type":"address","internalType":"address"}],"outputs":[{"name":"","type":"uint256","internalType":"uint256"}],"stateMutability":"view"},{"type":"function","name":"approve","inputs":[{"name":"spender","type":"address","internalType":"address"},{"name":"value","type":"uint256","internalType":"uint256"}],"outputs":[{"name":"","type":"bool","internalType":"bool"}],"stateMutability":"nonpayable"},{"type":"function","name":"balanceOf","inputs":[{"name":"account","type":"address","internalType":"address"}],"outputs":[{"name":"","type":"uint256","internalType":"uint256"}],"stateMutability":"view"},{"type":"function","name":"burn","inputs":[{"name":"value","type":"uint256","internalType":"uint256"}],"outputs":[],"stateMutability":"nonpayable"},{"type":"function","name":"burnFrom","inputs":[{"name":"account","type":"address","internalType":"address"},{"name":"value","type":"uint256","internalType":"uint256"}],"outputs":[],"stateMutability":"nonpayable"},{"type":"function","name":"cancelSuccessorClaim","inputs":[],"outputs":[],"stateMutability":"nonpayable"},{"type":"function","name":"cancelTreasuryChange","inputs":[],"outputs":[],"stateMutability":"nonpayable"},{"type":"function","name":"claimDividends","inputs":[],"outputs":[],"stateMutability":"nonpayable"},{"type":"function","name":"commitRecycle","inputs":[{"name":"_commitHash","type":"bytes32","internalType":"bytes32"}],"outputs":[],"stateMutability":"nonpayable"},{"type":"function","name":"completeVaultTransfer","inputs":[{"name":"_node","type":"address","internalType":"address"}],"outputs":[],"stateMutability":"nonpayable"},{"type":"function","name":"confirmActivity","inputs":[],"outputs":[],"stateMutability":"nonpayable"},{"type":"function","name":"decimals","inputs":[],"outputs":[{"name":"","type":"uint8","internalType":"uint8"}],"stateMutability":"view"},{"type":"function","name":"designateSuccessor","inputs":[{"name":"_successor","type":"address","internalType":"address"}],"outputs":[],"stateMutability":"nonpayable"},{"type":"function","name":"dividendPerToken","inputs":[],"outputs":[{"name":"","type":"uint256","internalType":"uint256"}],"stateMutability":"view"},{"type":"function","name":"dividendPool","inputs":[],"outputs":[{"name":"","type":"uint256","internalType":"uint256"}],"stateMutability":"view"},{"type":"function","name":"everRegistered","inputs":[{"name":"","type":"address","internalType":"address"}],"outputs":[{"name":"","type":"bool","internalType":"bool"}],"stateMutability":"view"},{"type":"function","name":"executeRecycle","inputs":[{"name":"_abandonedNode","type":"address","internalType":"address"},{"name":"_salt","type":"bytes32","internalType":"bytes32"}],"outputs":[],"stateMutability":"nonpayable"},{"type":"function","name":"executeTreasuryChange","inputs":[],"outputs":[],"stateMutability":"nonpayable"},{"type":"function","name":"getInactivityPeriod","inputs":[{"name":"_node","type":"address","internalType":"address"}],"outputs":[{"name":"","type":"uint256","internalType":"uint256"}],"stateMutability":"view"},{"type":"function","name":"getNetworkStatistics","inputs":[],"outputs":[{"name":"totalSupply_","type":"uint256","internalType":"uint256"},{"name":"recycledToNetwork","type":"uint256","internalType":"uint256"},{"name":"removedFromCirculation","type":"uint256","internalType":"uint256"},{"name":"successfulTransfers","type":"uint256","internalType":"uint256"},{"name":"totalProtocolFees_","type":"uint256","internalType":"uint256"},{"name":"dividendPool_","type":"uint256","internalType":"uint256"}],"stateMutability":"view"},{"type":"function","name":"getNodeState","inputs":[{"name":"node","type":"address","internalType":"address"}],"outputs":[{"name":"lastActivityTimestamp","type":"uint256","internalType":"uint256"},{"name":"designatedSuccessor","type":"address","internalType":"address"},{"name":"successorClaimInitiated","type":"bool","internalType":"bool"},{"name":"claimInitiationTimestamp","type":"uint256","internalType":"uint256"},{"name":"timeUntilInactive","type":"uint256","internalType":"uint256"},{"name":"timeUntilAbandoned","type":"uint256","internalType":"uint256"},{"name":"isActive","type":"bool","internalType":"bool"},{"name":"serviceTier","type":"string","internalType":"string"},{"name":"inactivityPeriod","type":"uint256","internalType":"uint256"}],"stateMutability":"view"},{"type":"function","name":"getProtocolFeeInfo","inputs":[],"outputs":[{"name":"treasury","type":"address","internalType":"address"},{"name":"feeBps","type":"uint256","internalType":"uint256"},{"name":"totalCollected","type":"uint256","internalType":"uint256"}],"stateMutability":"view"},{"type":"function","name":"getTotalTimeout","inputs":[{"name":"_node","type":"address","internalType":"address"}],"outputs":[{"name":"","type":"uint256","internalType":"uint256"}],"stateMutability":"view"},{"type":"function","name":"getVaultStatus","inputs":[{"name":"_node","type":"address","internalType":"address"}],"outputs":[{"name":"","type":"uint8","internalType":"enum WillChain.VaultStatus"}],"stateMutability":"view"},{"type":"function","name":"initiateSuccessorClaim","inputs":[{"name":"_node","type":"address","internalType":"address"}],"outputs":[],"stateMutability":"nonpayable"},{"type":"function","name":"lastDividendPerToken","inputs":[{"name":"","type":"address","internalType":"address"}],"outputs":[{"name":"","type":"uint256","internalType":"uint256"}],"stateMutability":"view"},{"type":"function","name":"lastTransferBlock","inputs":[{"name":"","type":"address","internalType":"address"}],"outputs":[{"name":"","type":"uint256","internalType":"uint256"}],"stateMutability":"view"},{"type":"function","name":"name","inputs":[],"outputs":[{"name":"","type":"string","internalType":"string"}],"stateMutability":"view"},{"type":"function","name":"nodeStates","inputs":[{"name":"","type":"address","internalType":"address"}],"outputs":[{"name":"lastActivityTimestamp","type":"uint256","internalType":"uint256"},{"name":"claimInitiationTimestamp","type":"uint256","internalType":"uint256"},{"name":"inactivityPeriod","type":"uint256","internalType":"uint256"},{"name":"vaultDataHash","type":"bytes32","internalType":"bytes32"},{"name":"designatedSuccessor","type":"address","internalType":"address"},{"name":"successorClaimInitiated","type":"bool","internalType":"bool"}],"stateMutability":"view"},{"type":"function","name":"owner","inputs":[],"outputs":[{"name":"","type":"address","internalType":"address"}],"stateMutability":"view"},{"type":"function","name":"pendingDividends","inputs":[{"name":"_node","type":"address","internalType":"address"}],"outputs":[{"name":"","type":"uint256","internalType":"uint256"}],"stateMutability":"view"},{"type":"function","name":"pendingOwner","inputs":[],"outputs":[{"name":"","type":"address","internalType":"address"}],"stateMutability":"view"},{"type":"function","name":"pendingTreasury","inputs":[],"outputs":[{"name":"","type":"address","internalType":"address"}],"stateMutability":"view"},{"type":"function","name":"pendingTreasuryEffectiveAt","inputs":[],"outputs":[{"name":"","type":"uint256","internalType":"uint256"}],"stateMutability":"view"},{"type":"function","name":"proposeTreasuryChange","inputs":[{"name":"_newTreasury","type":"address","internalType":"address"}],"outputs":[],"stateMutability":"nonpayable"},{"type":"function","name":"protocolTreasury","inputs":[],"outputs":[{"name":"","type":"address","internalType":"address"}],"stateMutability":"view"},{"type":"function","name":"recoverDividendDust","inputs":[],"outputs":[],"stateMutability":"nonpayable"},{"type":"function","name":"recycleCommits","inputs":[{"name":"","type":"address","internalType":"address"}],"outputs":[{"name":"commitHash","type":"bytes32","internalType":"bytes32"},{"name":"commitBlock","type":"uint64","internalType":"uint64"}],"stateMutability":"view"},{"type":"function","name":"recycleInactiveNode","inputs":[{"name":"_abandonedNode","type":"address","internalType":"address"}],"outputs":[],"stateMutability":"nonpayable"},{"type":"function","name":"renounceOwnership","inputs":[],"outputs":[],"stateMutability":"pure"},{"type":"function","name":"setInactivityPeriod","inputs":[{"name":"_period","type":"uint256","internalType":"uint256"}],"outputs":[],"stateMutability":"nonpayable"},{"type":"function","name":"symbol","inputs":[],"outputs":[{"name":"","type":"string","internalType":"string"}],"stateMutability":"view"},{"type":"function","name":"totalProtocolFees","inputs":[],"outputs":[{"name":"","type":"uint256","internalType":"uint256"}],"stateMutability":"view"},{"type":"function","name":"totalRecycledToNetwork","inputs":[],"outputs":[{"name":"","type":"uint256","internalType":"uint256"}],"stateMutability":"view"},{"type":"function","name":"totalRemovedFromCirculation","inputs":[],"outputs":[{"name":"","type":"uint256","internalType":"uint256"}],"stateMutability":"view"},{"type":"function","name":"totalSuccessfulTransfers","inputs":[],"outputs":[{"name":"","type":"uint256","internalType":"uint256"}],"stateMutability":"view"},{"type":"function","name":"totalSupply","inputs":[],"outputs":[{"name":"","type":"uint256","internalType":"uint256"}],"stateMutability":"view"},{"type":"function","name":"totalUnregisteredSupply","inputs":[],"outputs":[{"name":"","type":"uint256","internalType":"uint256"}],"stateMutability":"view"},{"type":"function","name":"transfer","inputs":[{"name":"to","type":"address","internalType":"address"},{"name":"value","type":"uint256","internalType":"uint256"}],"outputs":[{"name":"","type":"bool","internalType":"bool"}],"stateMutability":"nonpayable"},{"type":"function","name":"transferFrom","inputs":[{"name":"from","type":"address","internalType":"address"},{"name":"to","type":"address","internalType":"address"},{"name":"value","type":"uint256","internalType":"uint256"}],"outputs":[{"name":"","type":"bool","internalType":"bool"}],"stateMutability":"nonpayable"},{"type":"function","name":"transferOwnership","inputs":[{"name":"newOwner","type":"address","internalType":"address"}],"outputs":[],"stateMutability":"nonpayable"},{"type":"function","name":"unclaimedDividends","inputs":[{"name":"","type":"address","internalType":"address"}],"outputs":[{"name":"","type":"uint256","internalType":"uint256"}],"stateMutability":"view"},{"type":"function","name":"updateVaultData","inputs":[{"name":"_dataHash","type":"bytes32","internalType":"bytes32"}],"outputs":[],"stateMutability":"nonpayable"},{"type":"event","name":"ActivityConfirmed","inputs":[{"name":"node","type":"address","indexed":true,"internalType":"address"},{"name":"timestamp","type":"uint256","indexed":false,"internalType":"uint256"}],"anonymous":false},{"type":"event","name":"Approval","inputs":[{"name":"owner","type":"address","indexed":true,"internalType":"address"},{"name":"spender","type":"address","indexed":true,"internalType":"address"},{"name":"value","type":"uint256","indexed":false,"internalType":"uint256"}],"anonymous":false},{"type":"event","name":"DividendDustRecovered","inputs":[{"name":"to","type":"address","indexed":true,"internalType":"address"},{"name":"amount","type":"uint256","indexed":false,"internalType":"uint256"}],"anonymous":false},{"type":"event","name":"DividendsBurnedNoEligibleHolders","inputs":[{"name":"from","type":"address","indexed":true,"internalType":"address"},{"name":"amount","type":"uint256","indexed":false,"internalType":"uint256"}],"anonymous":false},{"type":"event","name":"DividendsClaimed","inputs":[{"name":"node","type":"address","indexed":true,"internalType":"address"},{"name":"amount","type":"uint256","indexed":false,"internalType":"uint256"}],"anonymous":false},{"type":"event","name":"DividendsDistributed","inputs":[{"name":"amount","type":"uint256","indexed":false,"internalType":"uint256"},{"name":"newDividendPerToken","type":"uint256","indexed":false,"internalType":"uint256"}],"anonymous":false},{"type":"event","name":"FrozenDividendsRecovered","inputs":[{"name":"abandonedNode","type":"address","indexed":true,"internalType":"address"},{"name":"amount","type":"uint256","indexed":false,"internalType":"uint256"}],"anonymous":false},{"type":"event","name":"InactiveNodeRecycled","inputs":[{"name":"node","type":"address","indexed":true,"internalType":"address"},{"name":"removedFromCirculation","type":"uint256","indexed":false,"internalType":"uint256"},{"name":"recycledToNetwork","type":"uint256","indexed":false,"internalType":"uint256"},{"name":"maintainer","type":"address","indexed":true,"internalType":"address"},{"name":"maintainerReward","type":"uint256","indexed":false,"internalType":"uint256"}],"anonymous":false},{"type":"event","name":"InactivityPeriodChanged","inputs":[{"name":"node","type":"address","indexed":true,"internalType":"address"},{"name":"newPeriod","type":"uint256","indexed":false,"internalType":"uint256"}],"anonymous":false},{"type":"event","name":"NodeRegistered","inputs":[{"name":"node","type":"address","indexed":true,"internalType":"address"},{"name":"timestamp","type":"uint256","indexed":false,"internalType":"uint256"}],"anonymous":false},{"type":"event","name":"OwnershipTransferStarted","inputs":[{"name":"previousOwner","type":"address","indexed":true,"internalType":"address"},{"name":"newOwner","type":"address","indexed":true,"internalType":"address"}],"anonymous":false},{"type":"event","name":"OwnershipTransferred","inputs":[{"name":"previousOwner","type":"address","indexed":true,"internalType":"address"},{"name":"newOwner","type":"address","indexed":true,"internalType":"address"}],"anonymous":false},{"type":"event","name":"ProtocolFeeCollected","inputs":[{"name":"from","type":"address","indexed":true,"internalType":"address"},{"name":"amount","type":"uint256","indexed":false,"internalType":"uint256"}],"anonymous":false},{"type":"event","name":"RecycleCommitted","inputs":[{"name":"committer","type":"address","indexed":true,"internalType":"address"},{"name":"commitHash","type":"bytes32","indexed":false,"internalType":"bytes32"},{"name":"commitBlock","type":"uint256","indexed":false,"internalType":"uint256"}],"anonymous":false},{"type":"event","name":"SuccessorClaimCancelled","inputs":[{"name":"node","type":"address","indexed":true,"internalType":"address"}],"anonymous":false},{"type":"event","name":"SuccessorClaimInitiated","inputs":[{"name":"node","type":"address","indexed":true,"internalType":"address"},{"name":"successor","type":"address","indexed":true,"internalType":"address"},{"name":"timestamp","type":"uint256","indexed":false,"internalType":"uint256"}],"anonymous":false},{"type":"event","name":"SuccessorDesignated","inputs":[{"name":"node","type":"address","indexed":true,"internalType":"address"},{"name":"successor","type":"address","indexed":true,"internalType":"address"}],"anonymous":false},{"type":"event","name":"Transfer","inputs":[{"name":"from","type":"address","indexed":true,"internalType":"address"},{"name":"to","type":"address","indexed":true,"internalType":"address"},{"name":"value","type":"uint256","indexed":false,"internalType":"uint256"}],"anonymous":false},{"type":"event","name":"TreasuryChangeCancelled","inputs":[{"name":"cancelled","type":"address","indexed":true,"internalType":"address"}],"anonymous":false},{"type":"event","name":"TreasuryChangeProposed","inputs":[{"name":"proposed","type":"address","indexed":true,"internalType":"address"},{"name":"effectiveAt","type":"uint256","indexed":false,"internalType":"uint256"}],"anonymous":false},{"type":"event","name":"TreasuryUpdated","inputs":[{"name":"oldTreasury","type":"address","indexed":true,"internalType":"address"},{"name":"newTreasury","type":"address","indexed":true,"internalType":"address"}],"anonymous":false},{"type":"event","name":"UserActivityConfirmed","inputs":[{"name":"node","type":"address","indexed":true,"internalType":"address"},{"name":"timestamp","type":"uint256","indexed":false,"internalType":"uint256"}],"anonymous":false},{"type":"event","name":"VaultAccessTransferred","inputs":[{"name":"fromNode","type":"address","indexed":true,"internalType":"address"},{"name":"toNode","type":"address","indexed":true,"internalType":"address"},{"name":"amount","type":"uint256","indexed":false,"internalType":"uint256"}],"anonymous":false},{"type":"event","name":"VaultDataUpdated","inputs":[{"name":"node","type":"address","indexed":true,"internalType":"address"},{"name":"dataHash","type":"bytes32","indexed":false,"internalType":"bytes32"}],"anonymous":false},{"type":"error","name":"CannotDesignateContract","inputs":[]},{"type":"error","name":"CannotDesignateSelf","inputs":[]},{"type":"error","name":"CannotRecycleContract","inputs":[]},{"type":"error","name":"CannotRecycleZeroAddress","inputs":[]},{"type":"error","name":"CircularSuccessorChain","inputs":[]},{"type":"error","name":"ClaimAlreadyInitiated","inputs":[]},{"type":"error","name":"ClaimExpired","inputs":[]},{"type":"error","name":"ClaimNotInitiated","inputs":[]},{"type":"error","name":"CommitExpired","inputs":[]},{"type":"error","name":"DataHashCannotBeZero","inputs":[]},{"type":"error","name":"DelegatedSpendingBlocked","inputs":[]},{"type":"error","name":"ERC20InsufficientAllowance","inputs":[{"name":"spender","type":"address","internalType":"address"},{"name":"allowance","type":"uint256","internalType":"uint256"},{"name":"needed","type":"uint256","internalType":"uint256"}]},{"type":"error","name":"ERC20InsufficientBalance","inputs":[{"name":"sender","type":"address","internalType":"address"},{"name":"balance","type":"uint256","internalType":"uint256"},{"name":"needed","type":"uint256","internalType":"uint256"}]},{"type":"error","name":"ERC20InvalidApprover","inputs":[{"name":"approver","type":"address","internalType":"address"}]},{"type":"error","name":"ERC20InvalidReceiver","inputs":[{"name":"receiver","type":"address","internalType":"address"}]},{"type":"error","name":"ERC20InvalidSender","inputs":[{"name":"sender","type":"address","internalType":"address"}]},{"type":"error","name":"ERC20InvalidSpender","inputs":[{"name":"spender","type":"address","internalType":"address"}]},{"type":"error","name":"EmptyCommitHash","inputs":[]},{"type":"error","name":"FlashloanPrevention","inputs":[]},{"type":"error","name":"InvalidCommitReveal","inputs":[]},{"type":"error","name":"InvalidInactivityPeriod","inputs":[]},{"type":"error","name":"InvalidSuccessorAddress","inputs":[]},{"type":"error","name":"NoActiveClaimToCancel","inputs":[]},{"type":"error","name":"NoActiveCommit","inputs":[]},{"type":"error","name":"NoDividendsToClaim","inputs":[]},{"type":"error","name":"NoDustAvailable","inputs":[]},{"type":"error","name":"NoPendingTreasuryChange","inputs":[]},{"type":"error","name":"NoTokensToRecycle","inputs":[]},{"type":"error","name":"NoTokensToTransfer","inputs":[]},{"type":"error","name":"NodeAlreadyAbandoned","inputs":[]},{"type":"error","name":"NodeNotAbandoned","inputs":[]},{"type":"error","name":"NodeStillActive","inputs":[]},{"type":"error","name":"NotDesignatedSuccessor","inputs":[]},{"type":"error","name":"NotRegistered","inputs":[]},{"type":"error","name":"OwnableInvalidOwner","inputs":[{"name":"owner","type":"address","internalType":"address"}]},{"type":"error","name":"OwnableUnauthorizedAccount","inputs":[{"name":"account","type":"address","internalType":"address"}]},{"type":"error","name":"OwnershipRenouncementDisabled","inputs":[]},{"type":"error","name":"ReentrancyGuardReentrantCall","inputs":[]},{"type":"error","name":"RevealTooEarly","inputs":[]},{"type":"error","name":"TimelockActive","inputs":[]},{"type":"error","name":"TreasuryCannotBeContract","inputs":[]},{"type":"error","name":"TreasuryCannotBeZero","inputs":[]},{"type":"error","name":"UseFreshCommitReveal","inputs":[]},{"type":"error","name":"VetoPeriodNotEnded","inputs":[]}],"bytecode":{"object":"0x608034620005835760406001600160401b03828201818111848210176200056f57825260098352602090682bb4b63621b430b4b760b91b82850152825193838501858110838211176200056f5784526004918286526315d2531360e21b8487015281518181116200055c576003908154906001948583811c9316801562000551575b888410146200053e578190601f93848111620004eb575b50889084831160011462000488575f926200047c575b50505f1982851b1c191690851b1782555b8751928311620004695784548481811c911680156200045e575b878210146200044b5781811162000403575b50859083116001146200039d578293949596975f9362000391575b505082841b925f19911b1c19161782555b807f9b779b17422d0df92223018b32b4d1fa46e071723d6817e2486d003becc55f005533156200037b57600680546001600160a01b0319908116909155600580543381841681179092556001600160a01b03167f8be0079c531659141344cd1fd0a4f28419497f9722a3daafe3b4186f6b6457e05f80a33390600d541617600d55335f5260158352835f209060ff198254161790556007825242835f2055303314158091816200029d575b506200028e575b620001d660025462000587565b600255335f525f8252825f206b033b2e3c9fd0803ce80000009081815401905583518181525f7fddf252ad1be2c89b69c2b068fc378daa952ba7f163c4a11628f55a4df523b3ef853393a3816200027a575b5062000265575b506200023b33620005b5565b6200024f575b51612bae9081620005f58239f35b6200025c60145462000587565b60145562000241565b600a60095491335f5252815f20555f6200022f565b9050335f525f8252825f2054145f62000228565b600c825243835f2055620001c9565b90505f8352835f205490620002b233620005b5565b158062000371575b806200035b575b620002df575b505080600954335f52600a8452845f20555f620001c2565b60095491335f52600a8552855f2054830392831162000348578281029281840414901517156200033557335f52600b8452845f2090670de0b6b3a7640000825493048301809311620003355750555f80620002c7565b601190634e487b7160e01b5f525260245ffd5b601182634e487b7160e01b5f525260245ffd5b50600954335f52600a8552855f205410620002c1565b50811515620002ba565b8351631e4fbdf760e01b81525f81840152602490fd5b015191505f8062000106565b90601f19831691855f52865f20925f5b818110620003ed57509884869798999a10620003d3575b50505050811b01825562000117565b01519060f8845f19921b161c191690555f808080620003c4565b8a830151855593860193918801918801620003ad565b855f52865f208280860160051c82019289871062000441575b0160051c019085905b82811062000435575050620000eb565b5f815501859062000425565b925081926200041c565b602286634e487b7160e01b5f525260245ffd5b90607f1690620000d9565b604185634e487b7160e01b5f525260245ffd5b015190505f80620000ae565b90879350601f19831691865f528a5f20925f5b8c828210620004d45750508411620004bc575b505050811b018255620000bf565b01515f1983871b60f8161c191690555f8080620004ae565b8385015186558b979095019493840193016200049b565b909150845f52885f208480850160051c8201928b861062000534575b918991869594930160051c01915b8281106200052557505062000098565b5f815585945089910162000515565b9250819262000507565b602287634e487b7160e01b5f525260245ffd5b92607f169262000081565b604184634e487b7160e01b5f525260245ffd5b634e487b7160e01b5f52604160045260245ffd5b5f80fd5b906b033b2e3c9fd0803ce80000008201809211620005a157565b634e487b7160e01b5f52601160045260245ffd5b6001600160a01b03168015159081620005e8575b81620005d3575090565b90505f52601560205260ff60405f2054161590565b308114159150620005c956fe608060409080825260049081361015610016575f80fd5b5f3560e01c9081630178d4ca14611ce1575080630490c71c14611caa57806306fdde0314611baa578063076aaa1314611ad1578063095ea7b314611a285780630d55def514611a0b5780631690e2e3146119f0578063180d97c1146119a657806318160ddd1461198857806321241dfe14610646578063229bb82314611712578063232f4b64146116ed57806323b872dd146116a857806325f3cbeb1461163657806328e1ef96146116135780632a8a2f1d146113c25780632ed6b75d1461139a5780632ff2e9dc1461137457806330d172d514611356578063313ce5671461133b5780633f44910b146112675780633ffa71c11461124957806342966c681461122c578063503a20c6146112085780635be0a5bb146111eb5780636654cde0146111cd578063668038e0146110ea578063695639b7146110b45780636a2e0af31461109757806370a0823114611061578063715018a61461104257806377ec0feb1461102457806378bfe37114610fdb57806379ba509714610f5457806379cc679014610f1a578063803db96d14610ef2578063839b32f614610eac57806386e1236614610e875780638712523e14610e505780638da5cb5b14610e285780639315080914610d1657806395d89b4114610bfc5780639c44f8ab14610ba05780639e5a590614610b10578063a37a9fc01461071a578063a617451214610ac6578063a9059cbb14610a96578063aad4c7c814610a7b578063af434a6d146109cc578063b3165ed214610954578063be37822814610938578063c1a287e214610646578063c79264581461090c578063c8e28aec146108ee578063c8fc11e11461087e578063c9405feb1461071f578063cb372e581461071a578063d102c75014610582578063d10e40dc146106fe578063d3d8d932146106da578063dd62ed3e14610691578063e30c397814610669578063e5bcdca41461064b578063e628c3ea14610646578063e63e463514610587578063f0976a9a14610582578063f2fde38b14610516578063f32f020b146104f8578063f3ff023f146104bc578063f526e39a1461049e578063fb1beaf114610467578063fc4d3d17146103ff5763fe1140a314610343575f80fd5b346103fb5760203660031901126103fb5761035c611cfb565b610364611fcd565b6001600160a01b03169182156103ee573083146103e157826001600160601b0360a01b60125416176012556202a3004201918242116103ce5750816020917f2fdb8aa18e3708b0dfed4acb0de7452e85e7f833b1b055880cef38e8bee690b59360135551908152a2005b601190634e487b7160e01b5f525260245ffd5b516362c6bbff60e11b8152fd5b516391f7acdb60e01b8152fd5b5f80fd5b5090346103fb575f3660031901126103fb57335f52600760205260ff82825f20015460a01c161561045a5761043333612343565b337fa77f2d6967892a8e014fd0bb96ecfcd3e676d02796ccc9e56185ab2588ab78bf5f80a2005b5163150b96e560e21b8152fd5b82346103fb5760203660031901126103fb576020906001600160a01b0361048c611cfb565b165f52600a8252805f20549051908152f35b82346103fb575f3660031901126103fb57602090600e549051908152f35b82346103fb5760203660031901126103fb576020906001600160a01b036104e1611cfb565b165f526015825260ff815f20541690519015158152f35b82346103fb575f3660031901126103fb57602090516301e133808152f35b346103fb5760203660031901126103fb5761052f611cfb565b610537611fcd565b600680546001600160a01b0319166001600160a01b039283169081179091556005549091167f38d16b8cac22d99fc7c124b9cd0de2d3fa1faef420bfe791d8c362d765e227005f80a3005b611d9e565b5090346103fb5760203660031901126103fb57813590811561063757805167ffffffffffffffff81830181811183821017610624577f6b2f2e29fa5ede2a8e4f5821c049a55927fee004aef6fef761606c4ad43c25d29495508352848252600160208301928243168452335f526016602052845f20905181550191511667ffffffffffffffff1982541617905580519283524360208401523392a2005b604186634e487b7160e01b5f525260245ffd5b51634211f93160e11b81529050fd5b611d65565b82346103fb575f3660031901126103fb576020906014549051908152f35b82346103fb575f3660031901126103fb5760065490516001600160a01b039091168152602090f35b82346103fb57806003193601126103fb576020906106ad611cfb565b6106b5611d11565b9060018060a01b038091165f5260018452825f2091165f528252805f20549051908152f35b82346103fb575f3660031901126103fb576020905169152d02c7e14af68000008152f35b82346103fb575f3660031901126103fb57602090516101008152f35b611d82565b5090346103fb5760203660031901126103fb5761073a611cfb565b6001600160a01b038181165f818152600760205284902085015490949116330361087057610766611ff9565b835f52600760205261077a835f2092612219565b82546107868282611e2e565b421115610860579061079791611e2e565b62278d0081019081811161084d57624f1a000180911161083a57421161082c578082019081549060ff8260a01c1661081e5750600160a01b9060ff60a01b191617905560014291015551904282527f83e33b05d6b489766e6a63397dd56cf8b49010a2270e805175a38fa1bba8d9e460203393a360015f80516020612b5983398151915255005b8451632f0904c360e11b8152fd5b82516335b2486f60e01b8152fd5b601182634e487b7160e01b5f525260245ffd5b601183634e487b7160e01b5f525260245ffd5b845163190de9dd60e31b81528390fd5b8251630a16c84760e01b8152fd5b5090346103fb5760203660031901126103fb5781359182156108e05750335f526007602052816003825f2001556108b433612343565b519081527fd6b80339dd791e8658830ae315d2672f559d749153ee8ba1064f73bb70c3b7d660203392a2005b90516333d163c960e21b8152fd5b82346103fb575f3660031901126103fb57602090600f549051908152f35b82346103fb5760203660031901126103fb5760209061093161092c611cfb565b611f4c565b9051908152f35b82346103fb575f3660031901126103fb57602090516101f48152f35b50346103fb575f3660031901126103fb5761096d611fcd565b6012546001600160a01b0381169290919083156109bf5750506001600160601b0360a01b166012555f6013557f126edc9f10a40adff641028274713504fd84689745c30ee6ce1a196cc5259bc15f80a2005b5163502b2fb760e11b8152fd5b5090346103fb5760203660031901126103fb5781359162278d0083141580610a6e575b80610a61575b80610a53575b610a455750335f526007602052816002825f200155610a1933612343565b519081527f1508763dfb43d7299a699e4b9a59453b051a82c1dc848f73c96b6b1b7bc96ba760203392a2005b905163306a915560e01b8152fd5b506301e133808314156109fb565b5062ed4e008314156109f5565b506276a7008314156109ef565b82346103fb575f3660031901126103fb576020905160028152f35b82346103fb57806003193601126103fb57602090610abf610ab5611cfb565b6024359033612028565b5160018152f35b82346103fb5760203660031901126103fb576001600160a01b03610ae8611cfb565b165f526016602052805f2067ffffffffffffffff600182549201541682519182526020820152f35b50346103fb575f3660031901126103fb57610b29611fcd565b6012546001600160a01b038082169390929084156109bf576013544210610b93575050600d54906001600160601b0360a01b908482841617600d55166012555f601355167f4ab5be82436d353e61ca18726e984e561f5c1cc7c6d38b29d2553c790434705a5f80a3005b51637d857b6760e01b8152fd5b5090346103fb5760203660031901126103fb57610bbb611cfb565b90610bc4611ff9565b610bcd8261288c565b610bed57610bda82612596565b60015f80516020612b5983398151915255005b5163e70f0e5b60e01b81529050fd5b5090346103fb575f3660031901126103fb578051905f9083549160018360011c9060018516968715610d0c575b6020958684108914610cf957868899858a98999a5291825f14610cd2575050600114610c76575b505050610c729291610c63910385611deb565b51928284938452830190611d27565b0390f35b5f90815286935091907f8a35acfbc15ff81a39ae7d344fd709f28e8600b4aa8c65c6b64bfe7fe36bd19b5b828410610cba5750505082010181610c63610c72610c50565b8054848a018601528895508794909301928101610ca1565b60ff19168782015293151560051b86019093019350849250610c639150610c729050610c50565b602282634e487b7160e01b5f525260245ffd5b91607f1691610c29565b50346103fb57816003193601126103fb57610d2f611cfb565b90610d38611ff9565b335f526016602052825f2067ffffffffffffffff90816001820154168015610e1857610d649043611e0d565b60028110610e085761010010610df857845160208101906001600160601b03198660601b16825260243560348201523360601b605482015260488152608081019381851090851117610de557838752519020905403610dd957610bda835f600187338352601660205282208281550155612596565b632489e90f60e21b8152fd5b604185634e487b7160e01b5f525260245ffd5b8451631426c89760e31b81528390fd5b855163c349402d60e01b81528490fd5b8551630f24a12b60e11b81528490fd5b82346103fb575f3660031901126103fb5760055490516001600160a01b039091168152602090f35b82346103fb5760203660031901126103fb576020906001600160a01b03610e75611cfb565b165f52600c8252805f20549051908152f35b82346103fb5760203660031901126103fb57602090610931610ea7611cfb565b612219565b82346103fb575f3660031901126103fb57610ec633612343565b514281527f806ecfe2fa6a61f4f622a2773e4bf95965e3c4559a291c82575c4d784394250e60203392a2005b82346103fb575f3660031901126103fb57600d5490516001600160a01b039091168152602090f35b82346103fb573660031901126103fb57610f52610f35611cfb565b60243590610f4281612240565b610f4d823383612948565b612438565b005b5090346103fb575f3660031901126103fb57600654916001600160a01b03913383851603610fc45750506001600160601b0360a01b8092166006556005549133908316176005553391167f8be0079c531659141344cd1fd0a4f28419497f9722a3daafe3b4186f6b6457e05f80a3005b60249250519063118cdaa760e01b82523390820152fd5b82346103fb575f3660031901126103fb5760c0906002549060105490600f5460115490600e549260085494815196875260208701528501526060840152608083015260a0820152f35b82346103fb575f3660031901126103fb576020906009549051908152f35b5090346103fb575f3660031901126103fb575163323376c960e21b8152fd5b82346103fb5760203660031901126103fb576020906001600160a01b03611086611cfb565b165f525f8252805f20549051908152f35b82346103fb575f3660031901126103fb576020905162ed4e008152f35b82346103fb575f3660031901126103fb5760609060018060a01b03600d541690600e549080519283526101f46020840152820152f35b5090346103fb575f3660031901126103fb57611104611ff9565b61110d3361255a565b6111c057335f52600c602052805f20544311156111b35761112d33612295565b335f52600b602052805f20549182156111a55750335f52600b6020525f8181205561115a82600854611e0d565b600855611168823330612028565b519081527f16b8533c95f66ab8c192c98ddcf5031bcb3ee6f4022988bdadd57d3422da307360203392a260015f80516020612b5983398151915255005b9051636089d40160e01b8152fd5b51633c274f8160e11b8152fd5b5163aba4733960e01b8152fd5b82346103fb575f3660031901126103fb576020906011549051908152f35b82346103fb575f3660031901126103fb57602090516202a3008152f35b82346103fb575f3660031901126103fb576020905169021e19e0c9bab24000008152f35b50346103fb5760203660031901126103fb57610f52903533612438565b82346103fb575f3660031901126103fb576020906010549051908152f35b50346103fb5760203660031901126103fb576001600160a01b03918261128b611cfb565b1692831561132d5733841461131f5730841461131157835f526007602052339083835f200154161461130457335f5260076020525f2001816001600160601b0360a01b8254161790556112dd33612343565b337f3a56e5e068a89242ce3c578f87433dafa4c23fd3caea4c91b359549c9ddf2f625f80a3005b516335ad425760e11b8152fd5b5051635f234cb160e01b8152fd5b5051636b844c9360e01b8152fd5b50516399e97a9760e01b8152fd5b82346103fb575f3660031901126103fb576020905160128152f35b82346103fb575f3660031901126103fb576020906008549051908152f35b82346103fb575f3660031901126103fb57602090516b033b2e3c9fd0803ce80000008152f35b82346103fb575f3660031901126103fb5760125490516001600160a01b039091168152602090f35b50346103fb576020806003193601126103fb576113dd611cfb565b9260018060a01b039283851693845f526007845281835f20015416330361160557611406611ff9565b335f52600c8352815f20544311156115f757835f5260078352815f2060ff8282015460a01c16156115e8576001015462278d0081019081811161084d57814211156115d857624f1a000180911161083a5742116115ca57835f525f8352815f20549485156115bb57856114c991335f5260158652845f20805460ff811615611579575b505060078652845f20805415611570575b506114a481612295565b6114ad33612295565b865f52600b8652845f2080549081611553575b50503390612028565b835f52600783526114f3825f2060045f918281558260018201558260028201558260038201550155565b601583525f829020805460ff19169055601154905f1982146103ce57506001016011555192835233927fb7b0e9cf7799c5b8b3855a4a2e51edd68b0455db44cda89ad60f25f7c01090c29190a360015f80516020612b5983398151915255005b5f9055335f52611567865f20918254611e2e565b90555f806114c0565b4290555f61149a565b60ff191660011790555f80875285902054806115a6575b50600954335f52600a8752855f20555f80611489565b6115b290601454611e0d565b6014555f611590565b509051630ee7477d60e21b8152fd5b90516341524ecf60e11b8152fd5b835163b62b15c760e01b81528390fd5b50905163ccf6765560e01b8152fd5b9051633c274f8160e11b8152fd5b9051630a16c84760e01b8152fd5b82346103fb575f3660031901126103fb5760209051683635c9adc5dea000008152f35b50346103fb5760203660031901126103fb5760c09160ff906001600160a01b038061165f611cfb565b165f526007602052815f208054946001820154936002830154916003840154930154948151978852602088015286015260608501528116608084015260a01c16151560a0820152f35b82346103fb5760603660031901126103fb57602090610abf6116c8611cfb565b6116d0611d11565b604435916116dd81612240565b6116e8833383612948565b612028565b82346103fb5760203660031901126103fb5760209061093161170d611cfb565b611f13565b5090346103fb57602090816003193601126103fb5761172f611cfb565b9060018060a01b0392838316805f5260078252825f20938454918786015495600160ff8860a01c1691015461176384612219565b9661176d85611e3b565b9460058610159586611968576001811496871561197b575b611968576118c157506118189798999a505f925f945b5f9081528089528290205469152d02c7e14af68000008110611823575081516117c381611dbb565b600c81526b131959d858de4815985d5b1d60a21b89820152975b82519c8d9c8d996101209a5216908c01521515908a01526060890152608088015260a0870152151560c08601528060e0860152840190611d27565b906101008301520390f35b69021e19e0c9bab2400000811061185e5750815161184081611dbb565b600c81526b11985b5a5b1e4815985d5b1d60a21b89820152976117dd565b683635c9adc5dea000001161189557815161187881611dbb565b600b81526a10985cda58c815985d5b1d60aa1b89820152976117dd565b81516118a081611dbb565b600f81526e4e6f205661756c742041636365737360881b89820152976117dd565b926118cc8988611e2e565b938115611948575062278d00830180841161193557624f1a00840180911161193557611818999a9b9c50935b8042105f1461192e5761190c904290611e0d565b938042105f1461192757611921904290611e0d565b9461179b565b505f611921565b505f61190c565b60118d634e487b7160e01b5f525260245ffd5b611818999a9b9c5061195c61196291611f13565b88611e2e565b936118f8565b60218d634e487b7160e01b5f525260245ffd5b506002811496505f611785565b82346103fb575f3660031901126103fb576020906002549051908152f35b5090346103fb5760203660031901126103fb576119c96119c4611cfb565b611e3b565b90519060058110156119dd57602092508152f35b602183634e487b7160e01b5f525260245ffd5b82346103fb575f3660031901126103fb576020905160648152f35b82346103fb575f3660031901126103fb5760209051620151808152f35b5090346103fb57806003193601126103fb57611a42611cfb565b602435903315611abb576001600160a01b0316908115611aa55760209350335f5260018452825f20825f52845280835f205582519081527f8c5be1e5ebec7d5bd14f71427d1e84f3dd0314c0f7b2291e5b200ac8c7c3b925843392a35160018152f35b8251634a1406b160e11b81525f81860152602490fd5b825163e602df0560e01b81525f81860152602490fd5b5090346103fb575f3660031901126103fb57611aeb611fcd565b611af3611ff9565b305f525f602052805f20546008549081811115611b9b5790611b1491611e0d565b906103e860025404808311611b92575b50600d547fd7572957bd59b0af06d92d2cbc339be736eaf3cd469e86f9c17a7498ae509ef7916020916001600160a01b03919082168015611b8657905b611b6c868330612028565b519485521692a260015f80516020612b5983398151915255005b50816005541690611b61565b91506020611b24565b505051636a5a030f60e11b8152fd5b5090346103fb575f3660031901126103fb578051905f906003549160018360011c9060018516948515611ca0575b6020958684108114611c8d57838852879493929187908215611c6b575050600114611c10575b5050610c729291610c63910385611deb565b9085925060035f527fc2575a0e9e593c00f959f8c92f12db2869c3395a3b0502d05e2516446f71f85b915f925b828410611c535750505082010181610c63611bfe565b8054848a018601528895508794909301928101611c3d565b60ff19168682015292151560051b85019092019250839150610c639050611bfe565b602289634e487b7160e01b5f525260245ffd5b91607f1691611bd8565b82346103fb5760203660031901126103fb576020906001600160a01b03611ccf611cfb565b165f52600b8252805f20549051908152f35b346103fb575f3660031901126103fb576020906013548152f35b600435906001600160a01b03821682036103fb57565b602435906001600160a01b03821682036103fb57565b91908251928382525f5b848110611d51575050825f602080949584010152601f8019910116010190565b602081830181015184830182015201611d31565b346103fb575f3660031901126103fb57602060405162278d008152f35b346103fb575f3660031901126103fb57602060405161125c8152f35b346103fb575f3660031901126103fb5760206040516276a7008152f35b6040810190811067ffffffffffffffff821117611dd757604052565b634e487b7160e01b5f52604160045260245ffd5b90601f8019910116810190811067ffffffffffffffff821117611dd757604052565b91908203918211611e1a57565b634e487b7160e01b5f52601160045260245ffd5b91908201809211611e1a57565b6001600160a01b0381165f9081526007602052604090208054918215611f0c57611e6490612219565b60049260ff8484015460a01c16611eda57611e7f9250611e2e565b62278d00810180821161084d57624f1a00820191828211611ec757421115611ebf57421115611eb857421115611eb25790565b50600390565b5050600290565b505050600190565b601184634e487b7160e01b5f525260245ffd5b50506001015462278d0081019081811161084d57624f1a00019081811161084d57421115611eb857421115611eb25790565b5050505f90565b611f1c90612219565b62278d00810190818111611e1a57624f1a0001809111611e1a5790565b81810292918115918404141715611e1a57565b611f558161255a565b611fc8576001600160a01b03165f81815260208190526040902054908115611fb957670de0b6b3a7640000611fa3611fb693611f9d600954600a60205260405f205490611e0d565b90611f39565b04905f52600b60205260405f2054611e2e565b90565b5050600b60205260405f205490565b505f90565b6005546001600160a01b03163303611fe157565b60405163118cdaa760e01b8152336004820152602490fd5b5f80516020612b5983398151915260028154146120165760029055565b604051633ee5aeb560e01b8152600490fd5b6001600160a01b038181169081156122015783169081156121e9573081141591826121db575b82308214158094816121cd575b6121b8575b6121a5575b825f526020915f8352604094855f2054898110612176579185939181857fddf252ad1be2c89b69c2b068fc378daa952ba7f163c4a11628f55a4df523b3ef888e806120f79f9e9c996120ee9e9c9a5f525f8452038b5f2055845f528a5f208181540190558a51908152a380612164575b612150575b5080612147575b612123575b50505061255a565b61210f5761255a565b6120fe5750565b61210a90601454611e2e565b601455565b61211b83601454611e0d565b60145561255a565b6007915f52525f2054612139575b5f80806120e6565b61214281612343565b612131565b508133146120e1565b600954905f52600a8352845f20555f6120da565b50805f525f835289855f2054146120d5565b865163391434e360e21b81526001600160a01b03891660048201526024810191909152604481018a9052606490fd5b815f52600c6020524360405f2055612065565b50825f52600c602052834360405f2055612060565b6121d688612295565b61205b565b6121e484612295565b61204e565b60405163ec442f0560e01b81525f6004820152602490fd5b604051634b637e8f60e11b81525f6004820152602490fd5b6001600160a01b03165f9081526007602052604090206002015480611fb657506276a70090565b61224990611e3b565b60058110156122815760018114159081612277575b5061226557565b60405163908f7a7360e01b8152600490fd5b905015155f61225e565b634e487b7160e01b5f52602160045260245ffd5b6001600160a01b0381165f8181526020819052604090205490916122b89061255a565b158061233a575b80612323575b6122dd575b50600954905f52600a60205260405f2055565b612303670de0b6b3a764000091611f9d600954855f52600a60205260405f205490611e0d565b04815f52600b60205261231b60405f20918254611e2e565b90555f6122ca565b50600954825f52600a60205260405f2054106122c5565b508015156122bf565b60018060a01b0316805f527f15c118892bba9735c15cf92518e8921adce5f6b48b3abc56d18a40318a4d5729602060158152604060ff815f205416156123c7575b835f5260078252805f20428155600481019081549060ff8260a01c166123af575b50505051428152a2565b5f9260019260ff60a01b1916905501555f80806123a5565b5f8252805f205480612423575b50835f5260158252805f20600160ff19825416179055600954600a8352815f2055837ff773bca07d020a1bc1fdd45ea3db573da547dd27180143afaf075c158a847594838351428152a2612384565b61242f90601454611e0d565b6014555f6123d4565b6001600160a01b0381169291908315612201573084141593848061254c575b612539575b805f525f60205260405f20549483861061250a57836124c9949596835f525f6020520360405f205584600254036002555f827fddf252ad1be2c89b69c2b068fc378daa952ba7f163c4a11628f55a4df523b3ef6020604051898152a380612501575b6124dc575b5061255a565b6124d05750565b61210a90601454611e0d565b5f52600760205260405f20546124f3575b5f6124c3565b6124fc81612343565b6124ed565b508033146124be565b60405163391434e360e21b81526001600160a01b03841660048201526024810187905260448101859052606490fd5b805f52600c6020524360405f205561245c565b61255583612295565b612457565b6001600160a01b0316801515908161258b575b81612576575090565b90505f52601560205260ff60405f2054161590565b30811415915061256d565b906001600160a01b0380831630811461287a57801561286857805f52602091600c8352604090815f2054431115612857576125d086611e3b565b93600585101561228157600480950361284757835f525f8152825f205415612837576125fb87612295565b835f52600b8152825f2080549081151590816127f6575b50855f526007835261263d855f2060045f918281558260018201558260028201558260038201550155565b6127e5575b50835f525f8152825f205496606488029588159689810460641488171561083a57612710809104976101f4808c02908c820414821715611ec7578290049261125c91828d02928d84041417156103ce5750996126ae836126ae6126b3948c9d9e9c9b9c049c8d94611e0d565b611e0d565b936126bf873385612028565b600d541680156127cf5791877f9f01c68c1df72199426e5dc03e009238218bf665f0fd62dc1a25b82c882d581b85846126fd89966127229887612028565b61270981600e54611e2e565b600e558951908152a25b61271d8982612438565b612a15565b61272e86600f54611e2e565b600f5561273d82601054611e2e565b601055845f526007815261276a835f2060045f918281558260018201558260028201558260038201550155565b5f8152825f205460158252835f2060ff198154169055806127ba575b5082519586528501528301527f94acc74003f15a699f52da828e59a8bde2c13cce80c2596199af88c2281eabfc60603393a3565b6127c690601454611e2e565b6014555f612786565b506127df84916127229399611e2e565b97612713565b6127f0908830612028565b5f612642565b5f905561280582600854611e0d565b600855857f2312fa1d12677f4740f247433c41d0f56ee42066d2fc6f52558920720ea60dc8848751858152a25f612612565b8251630c3de3ed60e01b81528590fd5b8251638eb843b760e01b81528590fd5b8151633c274f8160e11b8152600490fd5b604051631109803360e21b8152600490fd5b604051632de1296b60e21b8152600490fd5b6001600160a01b0381165f90815260076020526040902080548015611f0c576128b483611e3b565b926005841015612281576004809403612940578284015460a01c60ff161561290c5750506001015462278d0081019081811161084d57624f1a000180911161083a57905b6201518082018092116103ce575042111590565b612920925061291a90612219565b90611e2e565b62278d0081019081811161084d57624f1a000180911161083a57906128f8565b505050505f90565b919060018060a01b0380931692835f526001602052604093845f2091831691825f52602052845f2054925f198410612983575b505050505050565b8484106129e5575080156129ce5781156129b7575f526001602052835f20905f5260205203905f20555f808080808061297b565b8451634a1406b160e11b81525f6004820152602490fd5b845163e602df0560e01b81525f6004820152602490fd5b8551637dc7a0d960e11b81526001600160a01b039190911660048201526024810184905260448101859052606490fd5b612a1e8161255a565b15612b51576001600160a01b0381165f90815260208190526040902054905b612a8a60025492612a84612a7b612a6960018060a01b03861696875f525f60205260405f205490611e0d565b305f525f60205260405f205490611e0d565b91601454611e0d565b90611e0d565b918215612b09575082612a9e913090612028565b670de0b6b3a764000091828102928184041481151715611e1a57612ae96040927fac4c4b96e3856cb20170077826b7701a887bdaf8d743f369b438133249a1f82f9404600954611e2e565b80600955612af982600854611e2e565b60085582519182526020820152a1565b927f8f04e1e2132bdaea9e5557ab97ada140d3cbe4d52fbb5bda81b15f0075402b389250612b3981602093612438565b612b4581600f54611e2e565b600f55604051908152a2565b5f90612a3d56fe9b779b17422d0df92223018b32b4d1fa46e071723d6817e2486d003becc55f00a26469706673582212205e15d7f8ccde8721c16888cb037b2cf17799aa3f099c6231d82f2aded26ce13b64736f6c63430008180033","linkReferences":{}},"methodIdentifiers":{"BASIC_VAULT_THRESHOLD()":"28e1ef96","BURN_BPS()":"a37a9fc0","CLAIM_PERIOD()":"21241dfe","COMMIT_MAX_DELAY()":"d10e40dc","COMMIT_MIN_DELAY()":"aad4c7c8","COMMIT_REVEAL_WINDOW()":"0d55def5","DEFAULT_INACTIVITY_PERIOD()":"d102c750","FAMILY_VAULT_THRESHOLD()":"503a20c6","GRACE_PERIOD()":"c1a287e2","INITIAL_SUPPLY()":"2ff2e9dc","LEGACY_VAULT_THRESHOLD()":"d3d8d932","MAINTAINER_REWARD_BPS()":"1690e2e3","PERIOD_180_DAYS()":"6a2e0af3","PERIOD_30_DAYS()":"e628c3ea","PERIOD_365_DAYS()":"f32f020b","PERIOD_90_DAYS()":"f0976a9a","PROTOCOL_FEE_BPS()":"be378228","RECYCLE_BPS()":"cb372e58","TREASURY_CHANGE_DELAY()":"5be0a5bb","acceptOwnership()":"79ba5097","allowance(address,address)":"dd62ed3e","approve(address,uint256)":"095ea7b3","balanceOf(address)":"70a08231","burn(uint256)":"42966c68","burnFrom(address,uint256)":"79cc6790","cancelSuccessorClaim()":"fc4d3d17","cancelTreasuryChange()":"b3165ed2","claimDividends()":"668038e0","commitRecycle(bytes32)":"e63e4635","completeVaultTransfer(address)":"2a8a2f1d","confirmActivity()":"839b32f6","decimals()":"313ce567","designateSuccessor(address)":"3f44910b","dividendPerToken()":"77ec0feb","dividendPool()":"30d172d5","everRegistered(address)":"f3ff023f","executeRecycle(address,bytes32)":"93150809","executeTreasuryChange()":"9e5a5906","getInactivityPeriod(address)":"86e12366","getNetworkStatistics()":"78bfe371","getNodeState(address)":"229bb823","getProtocolFeeInfo()":"695639b7","getTotalTimeout(address)":"232f4b64","getVaultStatus(address)":"180d97c1","initiateSuccessorClaim(address)":"c9405feb","lastDividendPerToken(address)":"fb1beaf1","lastTransferBlock(address)":"8712523e","name()":"06fdde03","nodeStates(address)":"25f3cbeb","owner()":"8da5cb5b","pendingDividends(address)":"c7926458","pendingOwner()":"e30c3978","pendingTreasury()":"2ed6b75d","pendingTreasuryEffectiveAt()":"0178d4ca","proposeTreasuryChange(address)":"fe1140a3","protocolTreasury()":"803db96d","recoverDividendDust()":"076aaa13","recycleCommits(address)":"a6174512","recycleInactiveNode(address)":"9c44f8ab","renounceOwnership()":"715018a6","setInactivityPeriod(uint256)":"af434a6d","symbol()":"95d89b41","totalProtocolFees()":"f526e39a","totalRecycledToNetwork()":"3ffa71c1","totalRemovedFromCirculation()":"c8e28aec","totalSuccessfulTransfers()":"6654cde0","totalSupply()":"18160ddd","totalUnregisteredSupply()":"e5bcdca4","transfer(address,uint256)":"a9059cbb","transferFrom(address,address,uint256)":"23b872dd","transferOwnership(address)":"f2fde38b","unclaimedDividends(address)":"0490c71c","updateVaultData(bytes32)":"c8fc11e1"},"id":0}